:020000040800F2
:100000008810002091010008E10900082D0900086E
:10001000DD090008130600085F2700080000000043
:100020000000000000000000000000005D18000853
:10003000CB0600080000000013020008E11D0008C4
:10004000A7010008A7010008A7010008A7010008F0
:10005000A7010008A7010008CD060008A7010008B5
:10006000A7010008A7010008A7010008A7010008D0
:10007000A7010008A7010008A7010008A7010008C0
:10008000A7010008A7010008A7010008A7010008B0
:10009000A7010008A7010008A7010008A7010008A0
:1000A000A7010008A7010008A7010008A701000890
:1000B000851E0008A7010008A7010008A701000885
:1000C000A7010008A7010008A7010008A701000870
:1000D000A7010008A701000865250008A70100087E
:1000E000A7010008A7010008A701000800F002F816
:1000F00000F03FF80AA090E8000C82448344AAF183
:100100000107DA4501D100F034F8AFF2090EBAE880
:100110000F0013F0010F18BFFB1A43F0010318473B
:10012000902B0000B02B0000103A24BF78C878C193
:10013000FAD8520724BF30C830C144BF04680C60ED
:10014000704700000023002400250026103A28BF35
:1001500078C1FBD8520728BF30C148BF0B60704739
:10016000642900F0CB80002070471FB51FBD10B57B
:1001700010BD00F08BF91146FFF7F7FF02F0DCFB32
:1001800000F0A9F903B4FFF7F2FF03BC02F02AFB69
:1001900008480047FEE7FEE7FEE7FEE7FEE7FEE76A
:1001A000FEE7FEE7FEE7FEE703480449024A044B88
:1001B00070470000ED000008880E00208810002025
:1001C000880E0020EFF3108072B6704780F310881D
:1001D0007047204C204D25604FF0000484F30988BF
:1001E0001E4C4FF0010525701D4C4FF080552560C9
:1001F00062B6FEE730B41A4C4FF08055256030BC33
:10020000704730B4164C4FF08055256030BC7047B5
:1002100000BF72B6EFF3098028B1203880E8F00FF4
:1002200010490968086000B50F4880475DF804EB85
:100230000E480F490A7802700A480E490A6802609F
:10024000106890E8F00F203080F309884EF0040E1B
:1002500062B6704720ED00E00000FFFF760000204E
:1002600004ED00E07C000020D90F00086B000020A6
:100270006C00002084000020704700000FB4044987
:1002800010B503AA029800F0D3F810BC5DF814FB77
:10029000340000202DE9F0410E4604460020206283
:1002A0002046E168884730B3252805D0D4E90121EC
:1002B0009047206A401CF2E7E16820460027884703
:1002C000050018D0A5F14100192802D820354FF4B7
:1002D00000673246294620462760FFF741FF40B1BC
:1002E000012804D0F61D26F007060836D8E7361D8B
:1002F000D6E72846DAE7206ABDE8F0812DE9F0412B
:100300000646002410687529314616A510D0AFF3B3
:100310000080002802DA404213A507E031688A070E
:1003200001D512A502E0490704D511A5012401E079
:10033000AFF3008000210A2206F1240709E0B0FB98
:10034000F2FCB0FBF2F302FB1C003030785418468C
:10035000491C0028F3D123462A463046BDE8F04127
:1003600000F00CB8000000002D0000002B00000081
:100370002000000070477047704770472DE9F04734
:100380000D4699469246044600F124080168880605
:1003900004D5E06921F01001216000E00120A842AD
:1003A00001DD471B00E00027A1697A1902EB090073
:1003B000081AA0612078C00602D42046AFF300805E
:1003C000002608E0D4E901211AF806009047206AC7
:1003D000401C761C20624E45F4DB2078C0060AD50E
:1003E0002046AFF3008006E0D4E901213020904799
:1003F000206A401C2062381EA7F10107F4DC07E0E8
:10040000D4E9012118F805009047206A401C2062B9
:10041000281EA5F10105F3DC2046AFF3008020780B
:10042000000602D50220BDE8F0870120FBE70000AE
:10043000074B70B50D467B4400F011F80446284682
:1004400000F020F810B14FF0FF3070BD204670BDB5
:10045000D324000001694A1C02610878704700B586
:100460008FB0CDE901310021059105497944CDE9ED
:10047000031011466846FFF70DFF0FB000BD0000E6
:10048000E5FFFFFF007B00F080007047754600F03D
:100490002BF8AE4605006946534620F00700854616
:1004A00018B020B5FFF780FEBDE820404FF00006F1
:1004B0004FF000074FF000084FF0000B21F007014C
:1004C000AC46ACE8C009ACE8C009ACE8C009ACE88F
:1004D000C0098D46704710B50446AFF30080204632
:1004E000BDE81040FFF74EBE00487047280E0020C0
:1004F00010B500241E21012001F020FA012002F095
:10050000A1F91E21012001F059FA012002F09AF907
:100510001421012001F0AEF9012002F093F9142119
:10052000012001F0D9F9012002F08CF91E210020F0
:1005300001F044FA012002F085F91E21002001F0AB
:10054000FDF900BF54E01E21002001F037FA012020
:1005500002F078F91E21002001F0F0F9012002F0EC
:1005600071F91E21002001F0B7F9012002F06AF9AB
:100570001E21002001F07EF9012002F063F91E2106
:10058000012001F0DBF9012002F05CF91E210120BD
:1005900001F014FA012002F055F91E21012001F0AA
:1005A000CDF9012002F04EF91E21012001F006FADA
:1005B000012002F047F91E21012001F05BF9012022
:1005C00002F040F91E21012001F086F9012002F01D
:1005D00039F91E21002001F0F1F9012002F032F971
:1005E0001E21002001F0AAF9012002F02BF9641C61
:1005F000052CA8DB1421002001F03CF9012002F0B9
:1006000021F91421002001F067F9012002F01AF904
:1006100010BD00BFFEE7000010B500240DE0074844
:10062000006840B1601CC4B21E2002F00BF9642CBB
:1006300003DB012010BD0020FCE7F0E700012142B0
:10064000002004E00021034A1154411CC8B20A28CA
:10065000F8DB70479803002010B5402002F0ACF89A
:100660004FF480410A4800F05DF9C02001F05CFEC3
:10067000002404E0002001F057FE601CC4B2102CDE
:10068000F8DB4FF48041024800F04EF910BD000045
:10069000000C014010B5002414E01E21012001F0DF
:1006A0004DF91E21002001F089F9322002F0CAF82C
:1006B0001E21002001F042F91E21012001F07EF9E7
:1006C000601CC4B2052CE8DB10BD704710B50120DA
:1006D00000F006F8FFF7A0FF08B101F08FFB10BD96
:1006E00001490860704700001404014010B500245F
:1006F0001E21002001F062F9012002F0A3F81E2162
:10070000002001F01BF9012002F09CF814210120C7
:1007100001F0E2F8012002F095F81421012001F027
:10072000A9F8012002F08EF81E21012001F006F93F
:10073000012002F087F81E21012001F03FF900BFDF
:1007400054E01E21012001F0F9F8012002F07AF8AE
:100750001E21012001F032F9012002F073F81E2160
:10076000002001F087F8012002F06CF81E21002023
:1007700001F0B2F8012002F065F81E21002001F01E
:100780001DF9012002F05EF81E21002001F0D6F8CC
:10079000012002F057F81E21002001F00FF901207E
:1007A00002F050F81E21002001F0C8F8012002F0EC
:1007B00049F81E21012001F08FF8012002F042F8D3
:1007C0001E21012001F056F8012002F03BF81E2105
:1007D000012001F0B3F8012002F034F81E210120BD
:1007E00001F0ECF8012002F02DF8641C052CA8DBC8
:1007F0001421002001F070F8012002F023F81421E8
:10080000002001F037F8012002F01CF810BD2DE99E
:10081000F041024600250026002000230024002786
:1008200091F803C00CF00F0591F803C00CF0100C08
:10083000BCF1000F03D091F802C04CEA050591F815
:1008400000C0BCF1000F31D0146800202BE04FF045
:10085000010C0CFA00F3B1F800C00CEA03069E424A
:1008600020D183004FF00F0C0CFA03F7BC4305FABC
:1008700003FC4CEA040491F803C0BCF1280F06D134
:100880004FF0010C0CFA00FCC2F814C00AE091F819
:1008900003C0BCF1480F05D14FF0010C0CFA00FC6D
:1008A000C2F810C0401C0828D1D31460B1F800C0B1
:1008B000BCF1FF0F34DD546800202EE000F1080C7D
:1008C0004FF0010808FA0CF3B1F800C00CEA030677
:1008D0009E4221D183004FF00F0C0CFA03F7BC436A
:1008E00005FA03FC4CEA040491F803C0BCF1280F9C
:1008F00005D100F1080C08FA0CF8C2F8148091F840
:1009000003C0BCF1480F07D100F1080C4FF00108FB
:1009100008FA0CF8C2F81080401C0828CED35460A6
:10092000BDE8F081416170470161704700BFFEE79B
:1009300010B50121022002F011F84FF4FA7001F015
:1009400081FF00240FE00021042002F007F864205A
:1009500001F078FF0121042002F000F8642001F08A
:1009600071FF601CC4B20A2CEDDB0021022001F0F3
:10097000F5FF10BD10B501F055FA01F035FF4FF449
:10098000A06000F067F84FF4E13002F0C1F84FF4D6
:10099000E13002F06BF88C200C49087082200C4981
:1009A000087096200B49087082200B49087041F6A8
:1009B0001F41312001F09AFA01F02CF801F0E6F91C
:1009C00001F01CFD00F050F810BD00001B000020DD
:1009D0001C0000201D0000201E00002000BFFEE7BC
:1009E0007047000070B5002100230F22C47804B3C3
:1009F000154C246804F4E064C4F5E064210AC1F1F4
:100A00000403CA40447804FA03F184781440214373
:100A100009010E4C0678A155047804F01F05012445
:100A2000AC4005786D11AD0005F1E025C5F8004139
:100A300009E0047804F01F050124AC40044D067859
:100A4000761145F8264070BD0CED00E000E400E0B2
:100A500080E100E002490143024A11607047000052
:100A60000000FA050CED00E010B500F013F800F0FE
:100A7000BFFB00F0E7FB00F007FC00F08FFB00F08D
:100A800061FB00F09BFC00F03FFC00F065FC00F017
:100A900002F810BD7047704706480078012808D159
:100AA00005480078FF2804D203480078401C02491A
:100AB00008707047760000206900002010B50024FF
:100AC0001A480078012830D1FFF77CFB044618480B
:100AD000007820B116480078401E15490870144867
:100AE0000078F8B913480078E0B900F0C9FC124862
:100AF0001249097850F82100114908600F48007820
:100B00001049097888420DD00D480068806B401C60
:100B10000B49096888630C480068401C0A49086052
:100B2000FFF76FFB2046FFF751FB10BD760000205A
:100B3000690000206A000020C00800206C0000202E
:100B4000840000206B0000205000002010B500241D
:100B50000B480078012811D1FFF734FB04460948FF
:100B6000007840B908480078FF2804D20648007889
:100B7000401C054908702046FFF728FB10BD000007
:100B800076000020690000206A00002010B50024D3
:100B900013480078012821D1FFF714FB04461148BF
:100BA0000078C0B10F480078401E0E490870084612
:100BB000007860B90C48007828B92046FFF706FB9A
:100BC00000F024FC0AE02046FFF700FB06E0204688
:100BD000FFF7FCFA02E02046FFF7F8FA10BD00002C
:100BE000760000206A0000206900002010B50B4844
:100BF000007890B900F044FC094800780949087071
:100C000009480749097850F8210008490860084652
:100C1000006807490860FFF7DCFA10BD7600002085
:100C20006C0000206B000020C00800208400002021
:100C30007C000020704700002DE9FE4F06460F465D
:100C400090461C464FF00009FFF7BCFA81461F484A
:100C5000007828B14846FFF7B9FA3C20BDE8FE8F7E
:100C60001B4850F8240060BB0120194941F82400BA
:100C70004846FFF7ABFA002342463946304600F0BB
:100C800009F9824600200090019003460246514631
:100C90000290204600F00AFC054635B90D48007860
:100CA00001280CD100F0B2FB09E0FFF78BFA814676
:100CB0000020074941F824004846FFF787FA2846F4
:100CC000CCE74846FFF782FA2820C7E769000020F2
:100CD000C0080020760000202DE9F04F85B0814645
:100CE0008A4693461C46DDE90F78129D002003904A
:100CF000FFF768FA03902348007830B10398FFF7B4
:100D000065FA3C2005B0BDE8F08F1F4850F824007C
:100D100088BB01201C4941F824000398FFF756FACC
:100D20002A464146384600F0D1FC2B465A465146E9
:100D3000484600F0AFF804901198CDE90080029584
:100D40003A4620460E9B049900F0B0FB064636B9A1
:100D50000E48007801280CD100F058FB09E0FFF79D
:100D600031FA03900020084941F824000398FFF766
:100D70002DFA3046C6E7FFE70398FFF727FA282049
:100D8000C0E7000069000020C008002076000020B5
:100D9000704770472DE9F04106460F4614464FF064
:100DA00000081548007818B112202070BDE8F081C5
:100DB000FFF708FA8046FF2E03D11048006890F82C
:100DC00032600F4850F826502DB94046FFF7FEF923
:100DD00043202070EAE7012D05D14046FFF7F6F9E0
:100DE00043202070E2E7EF644046FFF7EFF9002070
:100DF000207000BFDAE70000690000207C000020BE
:100E0000C0080020704700002DE9F04707460D4656
:100E10004FF0000A002028606860FFF7D3F982468F
:100E2000FF2F03D11948006890F83270184850F825
:100E300027402CB95046FFF7C9F94320BDE8F08799
:100E4000012C04D15046FFF7C1F94320F6E7207C7E
:100E500000F0010020B95046FFF7B8F94520EDE752
:100E60000026D4F80C90D4F808805046FFF7AEF96D
:100E700000E0761C58F8041B0029FAD0B000286066
:100E8000A9EB0600800068600020D7E77C00002006
:100E9000C008002070B5044610464FF0807505600C
:100EA000051F28462C606FF00106051F28462E609E
:100EB0004FF01236051F28462E604FF00336051FEF
:100EC00028462E604FF00236051F28462E60761009
:100ED000051F28462E60051F284629604FF0113651
:100EE000051F28462E604FF01036051F28462E603D
:100EF0004FF00936051F28462E604FF00836051FB3
:100F000028462E604FF00736051F28462E604FF00A
:100F10000636051F28462E604FF00536051F284669
:100F20002E604FF00436051F28462E6070BD00006D
:100F30002DE9F04105464FF00008FFF743F98046E0
:100F4000FF2D05D12048006890F83250012608E0B6
:100F50001D48006890F83200A84201D1012600E047
:100F600000261A4850F825402CB94046FFF72EF9C4
:100F70004820BDE8F081012C04D14046FFF726F956
:100F80004320F6E794F834701148C05D94F83510AA
:100F900088430F49C8550846C05D30B994F83610EB
:100FA0000C48007888430B49087094F8300040F0F2
:100FB000080084F830004046FFF708F9012E01D1FF
:100FC00000F024FA0020D4E77C000020C0080020B4
:100FD0006E0000206D0000207047000070B50546CF
:100FE00000261748007800B170BD1648007800B19F
:100FF000FAE71DB3FFF7E6F806461348006890F8D5
:1010000034401248005D1049096891F83510884352
:101010000E4908550846005D40B90B48006890F835
:1010200036100B4800788843094908700648006864
:10103000C5623046FFF7CAF800F0E8F900BFD3E711
:10104000690000206A0000207C0000206E00002063
:101050006D00002070B5002600F072F8FFF7B2F8BE
:10106000064631480068401C2F4908603046FFF7AB
:10107000ADF82E480078012853D12D48007820B1D2
:10108000012804D0022809D103E001250BE0002546
:1010900009E0012501202649087004E0012500200F
:1010A0002349087000BF00BF05B970BD214804681E
:1010B00033E0FFF787F80646E06A50B3E06A401E67
:1010C000E062E06A28BB94F8300000F0370040B1DD
:1010D00014F8300F00F0C800207001206070303C20
:1010E00002E0002084F8310094F8300000F008009D
:1010F00078B93434A0781049097808430E4908704B
:1011000020780E49085C6178084314F834190B4ABA
:10111000505464693046FFF759F894F832003F287C
:10112000C7D100BFC1E70000940000207600002076
:101130008C000020880000206D0000206E00002040
:10114000704700002DE9F0415021114800F02CF9C2
:1011500000250DE0681C86B20D4800EB051400EB7D
:1011600006170020207067600AA0E060681C85B246
:10117000042DEFD3064800EB0514002020706060BA
:1011800004A0E060024804490860BDE8F081000066
:10119000700400203F0000005800002070B5C821F6
:1011A000114800F001F900230FE0581C85B203EB51
:1011B00083000D4901EB800405EB850001EB8006FF
:1011C000002020706660581C83B2092BEDD303EB1E
:1011D0008300054901EB8004002020706060084610
:1011E0000249086070BD0000A803002054000020E0
:1011F00000200A4908600A4908700A4908700A492B
:1012000008700A4908700A4908600A4908600A49D2
:1012100008600A4908600A49087070479400002075
:10122000690000206A00002077000020760000207E
:1012300050000020780000206400002060000020A2
:101240006800002000210A4A1170002004E00021FB
:10125000084A1154411CC8B20828F8D30021064A94
:101260001170064A1170064A1160064A11607047F3
:101270006D0000206E0000206B0000206C0000203C
:10128000840000207C00002070B54FF47C71194868
:1012900000F08AF84FF48071174800F085F80024B8
:1012A00013E0601CC5B2C4EBC40000EB4000114960
:1012B00001EB8003C5EBC50000EB400001EB8006AD
:1012C0005E610EA0D864601CC4B20B2CE9D3C4EBE1
:1012D000C40000EB4000074901EB80030020586187
:1012E00006A0D86400200649086002480549086045
:1012F00070BD0000C0090020C00800203F000000B1
:10130000880000208000002000B587B00320002165
:1013100080220A4BCDE90132CDE903104FF6FF7070
:101320003F23074A00900748FFF7D6FC06AA06A10C
:101330003F20FFF72FFD07B000BD0000C0060020D2
:10134000BC080020E115000875432F4F532D494973
:101350002049646C6500000000B587B003200021BF
:1013600080220A4BCDE90132CDE903104FF6FE7021
:101370003E23074A00900748FFF7AEFC06AA06A1E5
:101380003E20FFF707FD07B000BD0000C0040020AD
:10139000BC0600200916000875432F4F532D4949FC
:1013A000205374617400000004E0002200F8012B57
:1013B0004A1E91B20029F8D1704700002DE9F04192
:1013C00078211048FFF7F0FF00240DE0601C86B282
:1013D00004EB44000B4901EBC00506EB460001EBB2
:1013E000C0072F60601C84B2042CEFD304EB4400D0
:1013F000044901EBC0050020286008460249086046
:10140000BDE8F081B00D00209000002010B5002450
:10141000FEF7D8FE044613480078F8B91248007861
:10142000E0B900F02DF811481149097850F8210071
:10143000104908600E4800780F49097888420DD09D
:101440000C480068806B401C0A49096888630B4897
:101450000068401C09490860FEF7CCFE2046FEF7F4
:10146000B5FE10BD690000206A000020C008002001
:101470006C000020840000206B0000205000002041
:101480000649074A1278885C0649095C034A515CA0
:1014900001EBC001044A117070470000B02B000836
:1014A0006D0000206E0000206C0000202DE9F84F38
:1014B00005460F4690469946DDE90AAB00200090AC
:1014C000FEF780FE00903F480468002C74D018346A
:1014D00054F8040C3B4908600098FEF777FE44F886
:1014E000187CA576002020766076606144F814BCF4
:1014F00044F80CAC44F8108C0C9824F8080C24F830
:10150000069C0020E077E810207705F00700E076E1
:10151000217F01208840A077E17E0120884060770C
:1015200000206060E060A0602062A0626062E06213
:10153000206325A06063183C002606E0002104F12A
:10154000500040F82610701CC6B2002EF6D020467F
:10155000FFF770FB2046FFF71BFCFEF733FE009001
:101560001A4840F825401A48006860610020A061D0
:101570001748006810B11648006884611448046078
:101580003434A07813490978084312490870207848
:101590001149085C6178084314F834190E4A505414
:1015A0000E480078401C0D4908700098FEF70EFEAA
:1015B0000020BDE8F88FFFE70098FEF707FE422005
:1015C000F7E70000800000203F000000C008002076
:1015D000880000206D0000206E00002077000020B1
:1015E000002400BF00BFFEF7EDFD0446054800687B
:1015F000401C044908602046FEF7E8FDFFF7C9FBE0
:10160000F1E7000078000020002400BF02E028205D
:10161000FFF7E4FC194800780028F8D01848006863
:101620006421B0FBF1F0164908600846006828B94B
:10163000002014490870FF20FFF77AFC00BFFEF776
:10164000C1FD0446104800681049086000200E499A
:1016500008602046FEF7BAFD0C4800680849096892
:10166000B0FBF1F0C0F1640006490870FFF7CAFB57
:1016700000F00EF81420FFF7B1FCE0E7680000204E
:10168000600000205C000020780000206400002042
:101690007CB5002514E069462846FFF7B5FB0646F1
:1016A00066B9094850F8254044B1012C06D0D4E968
:1016B000020100EB810060640198A064681CC5B25F
:1016C0003F2DE8D97CBD0000C008002002F00103D6
:1016D00043B102F002032BB102E0491E002308C00F
:1016E0000029FAD1704700000A48006840F0040061
:1016F000084908600846006840F002000860064893
:10170000006840F004000449086000BF00BF30BF1B
:10171000704700000070004010ED00E001490860D3
:1017200070470000A0000E4229B1064AD269024368
:10173000044BDA6104E0034AD2698243014BDA6167
:10174000704700000010024029B1064A9269024326
:10175000044B9A6104E0034A92698243014B9A6107
:10176000704700000010024029B1064AD2680243C7
:10177000044BDA6004E0034AD2688243014BDA602A
:10178000704700000010024030B500210022002404
:1017900000232D4D6D6805F00C0121B1042905D001
:1017A000082923D105E0294D056022E0274D056079
:1017B0001FE0254D6D6805F47012234D6D6805F42A
:1017C0008034022505EB92421CB9214D554305603A
:1017D0000BE01D4D6D6805F400351DB11C4D5543E2
:1017E000056002E0194D5543056002E0174D0560A4
:1017F00000BF00BF144D6D6805F0F0010909154DDB
:101800006B5C0568DD4045600F4D6D6805F4E06177
:10181000090A104D6B5C4568DD4085600A4D6D68B6
:1018200005F46051C90A0B4D6B5C4568DD40C5602D
:10183000054D6D6805F44041890B074D6B5CC5682B
:10184000B5FBF3F5056130BD0010024000127A00CF
:1018500000093D003A0000204A00002070470000C7
:1018600010B50446A1B2024800F003FD10BD00000F
:101870000004004070B504460D4600200F49087072
:1018800017E02CB90E480078401C0D49087004E0A0
:101890000B480078401E0A49087009480078FFF795
:1018A000DFFF072000F0CEFF04480078401C03490A
:1018B000087002480078A842E3DB70BD18000020E1
:1018C0001B00002010B50446A1B2024800F0D3FC72
:1018D00010BD00000004004070B504460D46002015
:1018E0000F49087017E02CB90E480078401C0D49CC
:1018F000087004E00B480078401E0A490870094847
:101900000078FFF7DFFF072000F09CFF0448007815
:10191000401C0349087002480078A842E3DB70BD10
:10192000180000201C00002010B50446A1B2024897
:1019300000F0A3FC10BD00000004004070B5044698
:101940000D4600201249087018E02CB911480078A3
:10195000401E1049087004E00E480078401C0D49F4
:1019600008700C480078FFF7DFFF0B48007800F0A4
:1019700069FF07480078401C054908700448007852
:10198000A842E2DB0348017804A0FEF777FC70BDB3
:10199000180000201D0000201A00002062656175FB
:1019A00074793A256400000010B50446A1B20248DB
:1019B00000F065FC10BD00000004004070B5044656
:1019C0000D4600201049087018E02CB90F48007827
:1019D000401E0E49087004E00C480078401C0B497A
:1019E00008700A480078FFF7DFFF0948007800F028
:1019F00029FF05480078401C034908700248007818
:101A0000A842E2DB70BD0000180000201E0000208C
:101A10001A00002000B589B001210220FFF784FEE2
:101A200001210C20FFF790FEC020ADF820001C2003
:101A30008DF8230003208DF8220008A93648FEF710
:101A4000E6FE0320ADF820001C208DF823000320C3
:101A50008DF8220008A93148FEF7D9FE40F2CF7078
:101A6000ADF8180040F2CF20ADF814000020ADF81A
:101A70001A00ADF8160005A9294800F003FC602003
:101A8000ADF804000120ADF8060026480078ADF856
:101A90000A000020ADF80C0001A9214800F098FAD6
:101AA0000120ADF8060020480078ADF80A0001A931
:101AB0001B4800F0D9FA0821194800F027FB012043
:101AC000ADF8060019480078ADF80A0001A91448DD
:101AD00000F02AFB0821124800F076FB0120ADF847
:101AE000060013480078ADF80A0001A90C4800F080
:101AF00075FB08210A4800F0AFFB0121084800F0FF
:101B00003EFA0121064800F01FFA0121044800F0C6
:101B10002AFA09B000BD000000080140000C014095
:101B2000000400401B0000201C0000201D000020BD
:101B30001E00002010B5044604F0010020B1202151
:101B40001748FEF7F1FE03E020211548FEF7EAFEF4
:101B500004F0020020B140211148FEF7E5FE03E049
:101B600040210F48FEF7DEFE04F0040020B1802182
:101B70000B48FEF7D9FE03E080210948FEF7D2FEAC
:101B800004F0080028B14FF480710548FEF7CCFE40
:101B900004E04FF480710248FEF7C4FE10BD00005F
:101BA000000C014010B500F001F810BD0CB500208C
:101BB000019000903348006840F48030314908605B
:101BC00000BF3048006800F4003000900198401CCD
:101BD0000190009818B90198B0F5A06FF1D129488B
:101BE000006800F4003010B10120009001E00020F6
:101BF00000900098012843D12348006840F010006D
:101C0000214908600846006820F003000860084683
:101C1000006840F0020008601A48406819494860AE
:101C20000846406848600846406840F48060486064
:101C30000846406820F47C1048600846406840F43C
:101C4000E81048600846006840F08070086000BFF7
:101C50000C48006800F000700028F9D0094840687E
:101C600020F00300074948600846406840F0020041
:101C7000486000BF0348406800F00C000828F9D114
:101C80000CBD0000001002400020024010B50024EE
:101C900014210020FFF792FE012000F0D3FD142153
:101CA0000020FFF74BFE012000F0CCFD14210020A6
:101CB000FFF7E0FD012000F0C5FD00BF0FE0282187
:101CC0000120FFF7D7FD012000F0BCFD28210020F6
:101CD000FFF7D0FD012000F0B5FD601CC4B20A2C56
:101CE000EDDB14210120FFF7C5FD012000F0AAFD66
:101CF00014210120FFF762FE012000F0A3FD142152
:101D00000120FFF71BFE4FF4FA6000F09BFD142149
:101D10000120FFF713FE012000F094FD14210120A3
:101D2000FFF74CFE012000F08DFD14210020FFF78D
:101D3000D3FD012000F086FD00240FE028210120C2
:101D4000FFF7CAFD012000F07DFD28210020FFF7EC
:101D5000C3FD012000F076FD601CC4B20A2CEDDB4F
:101D600014210120FFF7B8FD012000F06BFD1421C4
:101D70000020FFF723FE012000F064FD1421002065
:101D8000FFF7DCFD012000F05DFD10BD08B501216D
:101D90000820FFF7D9FC10208DF8030003208DF8F0
:101DA000020047F2E010ADF8000069460148FEF776
:101DB0002EFD08BD000C0140042808D14FF0E021A1
:101DC000096941F004014FF0E022116107E04FF092
:101DD000E021096921F004014FF0E0221161704710
:101DE00010B505480078012805D1FEF755FEFFF72C
:101DF00031F9FEF763FE10BD7600002010B500211A
:101E00004FF4FE70FFF7B0FC00F001F810BD10B504
:101E100001210807FFF788FC0120FFF77FFCFFF78F
:101E200063FC10BD10B51348006840F00100114973
:101E3000086008464068104908400E494860084656
:101E400000680E4908400B4908600846006820F405
:101E5000802008600846406820F4FE0048604FF487
:101E60001F008860FFF79EFE4FF000600449086085
:101E700010BD0000001002400000FFF8FFFFF6FE5A
:101E800008ED00E010B50121880700F087F801286F
:101E90001FD112480078E0B1104800781049097845
:101EA00088420FD10F480078401C0E490870084640
:101EB000007804280DDB01200B4908700020094937
:101EC000087006E0002007490870044800780449BB
:101ED00008700121880700F043F810BD3900002088
:101EE0000200002003000020000000207FB505460E
:101EF0000C4601210846FFF717FCADF80850ADF875
:101F000004400020ADF80600ADF80A0001A94FF02A
:101F1000804000F0B7F901221146900700F04FF819
:101F20000121880700F01FF81C208DF80000012017
:101F30008DF8010003208DF8020001208DF80300C8
:101F40006846FEF74FFD7FBD21B1028842F0800256
:101F5000028004E002884FF67F731A4002807047C7
:101F6000CA430282704721B1028842F00102028016
:101F700004E002884FF6FE731A400280704731B1C8
:101F8000B0F8442042F40042A0F8442005E0B0F844
:101F90004420C2F30E02A0F84420704730B5024638
:101FA000002000230024158A05EA0103958905EA2B
:101FB000010413B10CB1012000E0002030BD1AB1C2
:101FC00083890B43838102E083898B43838170473C
:101FD00070B5002400220023058C4FF6FE763540B4
:101FE0000584028C8388048B4FF68F752C40B51EB8
:101FF0002C400D882C43751E2A400D892A434D889C
:102000002A43144DA8420BD0134DA84208D0134DBB
:10201000A84205D0124DA84202D0124DA84213D1B9
:102020004FF6F7752A404D892A434FF6FB752A4033
:102030008D882A434FF6FF652B404FF6FF552B4006
:102040008D892B43CD892B4383800483CD8885865E
:10205000028470BD002C014000340140004001406A
:10206000004401400048014070B5002400220023D4
:10207000058C4FF6EF7635400584028C8388048BFF
:1020800048F6FF752C404FF6FF452C400D884FF663
:10209000FF7606EA05252C434FF6DF752A400D89A9
:1020A00006EA05152A434D8806EA05152A43154D0B
:1020B000A84202D0144DA8421DD14FF67F752A4088
:1020C0004D894FF6FF7606EA05152A434FF6BF7590
:1020D0002A408D8806EA05152A434FF6FF352B4026
:1020E0004FF2FF752B408D8906EA85052B43CD897C
:1020F00006EA85052B4383800483CD880587028407
:1021000070BD0000002C0140003401400A4600214F
:10211000018B4FF2FF7319404FF6FF7303EA02235E
:10212000194301837047000070B50024002200238A
:10213000058C4FF6FF6635400584028C8388848BBE
:102140004FF68F752C404FF6FC752C400D882C43B4
:102150004FF6FF552A400D894FF6FF7606EA052512
:102160002A434D8806EA05252A43154DA84202D088
:10217000144DA8421DD14FF2FF752A404D894FF6EC
:10218000FF7606EA05252A434FF6FF352A408D885B
:1021900006EA05252A434EF6FF752B404DF6FF75DE
:1021A0002B408D8906EA05152B43CD8906EA0515D6
:1021B0002B4383808483CD888587028470BD000093
:1021C000002C0140003401400A460021818B4FF66B
:1021D000F7731940114381837047000070B50022E6
:1021E00000230024058C4EF6FF7635400584038CD1
:1021F0008488828B48F6FF752A404FF6FF452A40B7
:102200000D884FF6FF7606EA05252A434DF6FF7541
:102210002B400D8906EA05352B434D8806EA053526
:102220002B430B4DA84202D00A4DA84208D14BF6D1
:10223000FF752C408D894FF6FF7606EA85152C43F5
:1022400084808283CD88A0F84050038470BD000054
:10225000002C0140003401400A460021818B4FF2DE
:10226000FF7319404FF6FF7303EA0223194381837A
:102270007047818670470187704781877047A0F853
:1022800040107047002202881D4B98420ED01D4B13
:1022900098420BD0B0F1804F08D01B4B984205D02C
:1022A0001A4B984202D01A4B984204D14FF68F73C2
:1022B0001A404B881A43174B984207D0164B984246
:1022C00004D04FF6FF431A40CB881A4302808B8814
:1022D00083850B8803850A4B98420BD0094B9842A3
:1022E00008D00E4B984205D00D4B984202D00D4BB2
:1022F000984201D10B7A0386012383827047000044
:10230000002C01400034014000040040000800405F
:10231000000C00400010004000140040004001404C
:10232000004401400048014070B504464FF480412C
:102330001648FEF7F7FA00251AE04FF4005113484B
:10234000FEF7F0FA04F0010028B14FF480510F4875
:10235000FEF7EAFA04E04FF480510C48FEF7E2FA87
:102360004FF400510948FEF7DFFA6410681CC5B24B
:10237000082DE2DB4FF400510448FEF7D3FA4FF486
:1023800080510248FEF7CEFA70BD0000000C0140FB
:1023900010B5402000F010FA4FF480411648FEF7C7
:1023A000C1FAC020FFF7C0FF002404E00020FFF7BF
:1023B000BBFF601CC4B2102CF8DB4FF480410E4808
:1023C000FEF7B2FA642000F03DFA4FF480410A486B
:1023D000FEF7A8FAC020FFF7A7FF002404E0FF20C3
:1023E000FFF7A2FF601CC4B2102CF8DB4FF4804151
:1023F0000148FEF799FA10BD000C014010B54FF4EA
:1024000000510B48FEF790FA4FF480410848FEF760
:102410008BFA4FF480510648FEF786FA892000F0C7
:10242000CBF9FEF719F9642000F00CFA10BD00009A
:10243000000C014010B5002400BF44E01E21002024
:10244000FFF7BCFA012000F0FDF91E210020FFF784
:1024500075FA012000F0F6F914210020FFF70AFABE
:10246000012000F0EFF91E210120FFF767FA01209B
:1024700000F0E8F91E210120FFF7A0FA1E2101203B
:10248000FFF75CFA012000F0DDF91E210120FFF7C3
:1024900095FA012000F0D6F914210120FFF7EAF99E
:1024A000012000F0CFF91E210020FFF787FA01205C
:1024B00000F0C8F91E210020FFF740FA012000F0CB
:1024C000C1F9601CC4B2032CB8DB10BD10B50024E8
:1024D00000BF44E01E210120FFF730FA012000F088
:1024E000B1F91E210120FFF769FA012000F0AAF9D5
:1024F00014210120FFF7F0F9012000F0A3F91E21BB
:102500000020FFF75BFA012000F09CF91E2100205B
:10251000FFF714FA1E210020FFF750FA012000F007
:1025200091F91E210020FFF709FA012000F08AF935
:1025300014210020FFF7D0F9012000F083F91E21BB
:102540000120FFF7FBF9012000F07CF91E2101209A
:10255000FFF734FA012000F075F9601CC4B2032CB7
:10256000B8DB10BD10B540F22551084800F032F834
:1025700050B1064800F0EAF8C4B2204600F008F96D
:102580002021024800F004F810BD00000044004083
:1025900001F40072B2F5007F00D100BFCA4302808F
:1025A000704721B1828942F40052828104E082891D
:1025B0004DF6FF731A408281704702460020B1F544
:1025C000007F00D100BF13880B400BB1012000E059
:1025D0000020704770B5024600240023002500202B
:1025E00040F66A16B14200D100BFC1F3421501F0B6
:1025F0001F03012606FA03F3012D02D19689334009
:1026000006E0022D02D1168A334001E0968A33405B
:102610000C12012606FA04F41688344013B10CB1EA
:10262000012000E0002070BDF0B503460024002624
:102630000025002040F66A17B94200D100BF1846B5
:10264000C1F3421401F01F06012707FA06F5012C19
:1026500001D10C3004E0022C01D1103000E0143024
:102660001AB107682F43076002E00768AF430760AD
:10267000F0BD00002DE9F04786B005460E46002467
:10268000A24600BFA1460027B08900B100BF2F4677
:102690002C8A4CF6FF700440F08804432C82AC89ED
:1026A0004EF6F3100440B08831890843718908431D
:1026B0000443AC81AC8A4FF6FF400440B089044328
:1026C000AC8201A8FFF760F81F48874202D1DDF80D
:1026D00010A001E0DDF80CA0A88900F4004040B192
:1026E0000AEBCA0000EB0A1031684900B0FBF1F8B0
:1026F00007E00AEBCA0000EB0A1031688900B0FB62
:10270000F1F86420B8FBF0F004012009642101FB1A
:102710001089A88900F4004040B1322000EBC900C4
:10272000B0FBF1F000F00700044308E0322000EBBA
:1027300009106421B0FBF1F000F00F0004432C817C
:1027400006B0BDE8F08700000038014001468888E7
:10275000C0F308007047C1F308028280704700BFD1
:10276000FEE7000010B50948007859280DD1074848
:102770004078482809D10548C0785A2805D103482F
:102780000079492801D100F013F910BD9803002009
:102790000749084A1278885406490978491C054AAD
:1027A0001170114609780F2901DB00211170704763
:1027B000980300203900002010B504464FF48041F2
:1027C0000748FEF7AFF82046FFF7AEFD4FF4804113
:1027D0000348FEF7A9F8022000F034F810BD00000D
:1027E000000C014000BF704710B56FF00400FFF708
:1027F000E3FA104800681049B0FBF1F00F49087087
:102800000C4800680C49B0FBF1F441F288304443B5
:1028100005200B4908804FF0E020006940F00200DD
:102820004FF0E021086108464461006940F0010072
:10283000086110BD0400002000127A003000002062
:102840003200002070B504460F480078A0B10F4850
:10285000007888B90E480088844206DB0C4800885E
:1028600094FBF0F5284600F01DF80948008894FB19
:10287000F0F100FB114084B24FF47A7104FB01F0D7
:1028800000F016F870BD00007600002069000020FE
:102890003200002010B5FEF759F910BD10B5FEF753
:1028A00075F910BD10B504462046FEF797FB10BD24
:1028B0002DE9F047074600264FF0E020D0F81490AD
:1028C0001148007807FB00F800BFFFF7E3FF4FF067
:1028D000E020856911E04FF0E0208469AC420CD023
:1028E000AC4202D2281B064403E0A9EB04002844B2
:1028F00006442546464500D300E0ECE700BFFFF75D
:10290000CDFFBDE8F08700003000002070B5044620
:102910000D46E1B20548FFF71EFF00BF4021034806
:10292000FFF74BFE0128F9D1204670BD0038014069
:1029300001E0FFF72DFDFCE710B5FEF71BF80A23B9
:10294000044A00210448FEF777F9FEF74FF900200A
:1029500010BD000094010020292A00082DE9F04153
:1029600005460E460024A04619E0002713E0002487
:102970000EE0012E04D10C49085DFFF7DBF803E0FF
:102980000A49085DFFF7D6F80220FFF75BFF641CD9
:10299000082CEEDB7F1C082FE9DB08F10108A845B5
:1029A000E3DBBDE8F08100001F00002027000020CD
:1029B00010B51248807808281AD2DFE800F0190410
:1029C000070A0D101316FDF791FE15E0FDF790FDB7
:1029D00012E0FFF72FFD0FE0FFF778FD0CE0FFF7A7
:1029E00055F909E0FDF756FE06E0FDF7A1FF03E00B
:1029F00000200249887000BF00BF10BD980300206E
:102A00000CE007480078012808D10020044908702C
:102A100004490870FFF7A6FEFDF712FEF1E700007B
:102A2000000000203900002070B50446002500BFDA
:102A3000FDF7C8FB05460723084A00210848FEF7B2
:102A4000FBF80623074A00210748FEF7F5F80A209D
:102A5000FEF76EFA2846FDF7B9FB70BD9402002020
:102A6000012A0008940300203129000810B586B01F
:102A7000044601210420FEF767FE01214804FEF709
:102A800053FE0420ADF8140003208DF81600182022
:102A90008DF8170005A91C48FDF7B9FE0820ADF810
:102AA000140004208DF8170005A91748FDF7AFFEA4
:102AB00026208DF8000003208DF8010002208DF8FB
:102AC000020001208DF803006846FDF78BFF01949A
:102AD0000020ADF80800ADF80A00ADF80C00ADF824
:102AE00010000C20ADF80E0001A90848FFF7C2FD48
:102AF000012240F225510548FFF796FD01210348C8
:102B0000FFF74FFD06B010BD000801400044004033
:102B100010B586B00446012144F20400FEF714FE0D
:102B20004FF40070ADF8140003208DF81600182043
:102B30008DF8170005A91C48FDF769FE4FF4806069
:102B4000ADF8140004208DF8170005A91648FDF70C
:102B50005EFE25208DF8000003208DF801008DF821
:102B6000020001208DF803006846FDF73BFF019449
:102B70000020ADF80800ADF80A00ADF80C00ADF883
:102B800010000C20ADF80E0001A90848FFF772FDF7
:102B9000002240F225510548FFF746FD0121034878
:102BA000FFF7FFFC06B010BD0008014000380140EF
:102BB000000001000200010003000100020001000A
:102BC00004000100020001000300010002000100F6
:102BD00005000100020001000300010002000100E5
:102BE00004000100020001000300010002000100D6
:102BF00006000100020001000300010002000100C4
:102C000004000100020001000300010002000100B5
:102C100005000100020001000300010002000100A4
:102C20000400010002000100030001000200010095
:102C30000700010002000100030001000200010082
:102C40000400010002000100030001000200010075
:102C50000500010002000100030001000200010064
:102C60000400010002000100030001000200010055
:102C70000600010002000100030001000200010043
:102C80000400010002000100030001000200010035
:102C90000500010002000100030001000200010024
:102CA0000400010002000100030001000200010015
:102CB000D02C000800000020980000002801000827
:102CC000682D000898000020F00F00004401000863
:102CD0000000000000A24A04000000000000000004
:102CE000010203040607080900C80A0000000008E2
:102CF0000C0406020301090901030206040C080082
:102D000000000000000000000000000000000102C0
:102D10000304010203040607080902040608000070
:102D200000000000000000000000000000000000A3
:102D30000000000000000000000000000000000093
:102D40000000000000000000000000000000000083
:102D50000000000000000000000000000000000073
:082D600000000000000000006B
:04000005080001915D
:00000001FF
