:020000040800F2
:100000008810002091010008E10900082D0900086E
:10001000DD090008130600080B2800080000000096
:1000200000000000000000000000000009190008A6
:10003000CB06000800000000130200088D1E000817
:10004000A7010008A7010008A7010008A7010008F0
:10005000A7010008A7010008CD060008A7010008B5
:10006000A7010008A7010008A7010008A7010008D0
:10007000A7010008A7010008A7010008A7010008C0
:10008000A7010008A7010008A7010008A7010008B0
:10009000A7010008A7010008A7010008A7010008A0
:1000A000A7010008A7010008A7010008A701000890
:1000B000311F0008A7010008A7010008A7010008D8
:1000C000A7010008A7010008A7010008A701000870
:1000D000A7010008A701000811260008A7010008D1
:1000E000A7010008A7010008A701000800F002F816
:1000F00000F03FF80AA090E8000C82448344AAF183
:100100000107DA4501D100F034F8AFF2090EBAE880
:100110000F0013F0010F18BFFB1A43F0010318473B
:10012000482C0000682C0000103A24BF78C878C121
:10013000FAD8520724BF30C830C144BF04680C60ED
:10014000704700000023002400250026103A28BF35
:1001500078C1FBD8520728BF30C148BF0B60704739
:10016000642900F0CB80002070471FB51FBD10B57B
:1001700010BD00F08BF91146FFF7F7FF02F032FCDB
:1001800000F0A9F903B4FFF7F2FF03BC02F080FB13
:1001900008480047FEE7FEE7FEE7FEE7FEE7FEE76A
:1001A000FEE7FEE7FEE7FEE703480449024A044B88
:1001B00070470000ED000008880E00208810002025
:1001C000880E0020EFF3108072B6704780F310881D
:1001D0007047204C204D25604FF0000484F30988BF
:1001E0001E4C4FF0010525701D4C4FF080552560C9
:1001F00062B6FEE730B41A4C4FF08055256030BC33
:10020000704730B4164C4FF08055256030BC7047B5
:1002100000BF72B6EFF3098028B1203880E8F00FF4
:1002200010490968086000B50F4880475DF804EB85
:100230000E480F490A7802700A480E490A6802609F
:10024000106890E8F00F203080F309884EF0040E1B
:1002500062B6704720ED00E00000FFFF760000204E
:1002600004ED00E07C000020851000086B000020F9
:100270006C00002084000020704700000FB4044987
:1002800010B503AA029800F0D3F810BC5DF814FB77
:10029000340000202DE9F0410E4604460020206283
:1002A0002046E168884730B3252805D0D4E90121EC
:1002B0009047206A401CF2E7E16820460027884703
:1002C000050018D0A5F14100192802D820354FF4B7
:1002D00000673246294620462760FFF741FF40B1BC
:1002E000012804D0F61D26F007060836D8E7361D8B
:1002F000D6E72846DAE7206ABDE8F0812DE9F0412B
:100300000646002410687529314616A510D0AFF3B3
:100310000080002802DA404213A507E031688A070E
:1003200001D512A502E0490704D511A5012401E079
:10033000AFF3008000210A2206F1240709E0B0FB98
:10034000F2FCB0FBF2F302FB1C003030785418468C
:10035000491C0028F3D123462A463046BDE8F04127
:1003600000F00CB8000000002D0000002B00000081
:100370002000000070477047704770472DE9F04734
:100380000D4699469246044600F124080168880605
:1003900004D5E06921F01001216000E00120A842AD
:1003A00001DD471B00E00027A1697A1902EB090073
:1003B000081AA0612078C00602D42046AFF300805E
:1003C000002608E0D4E901211AF806009047206AC7
:1003D000401C761C20624E45F4DB2078C0060AD50E
:1003E0002046AFF3008006E0D4E901213020904799
:1003F000206A401C2062381EA7F10107F4DC07E0E8
:10040000D4E9012118F805009047206A401C2062B9
:10041000281EA5F10105F3DC2046AFF3008020780B
:10042000000602D50220BDE8F0870120FBE70000AE
:10043000074B70B50D467B4400F011F80446284682
:1004400000F020F810B14FF0FF3070BD204670BDB5
:100450007F25000001694A1C02610878704700B5D9
:100460008FB0CDE901310021059105497944CDE9ED
:10047000031011466846FFF70DFF0FB000BD0000E6
:10048000E5FFFFFF007B00F080007047754600F03D
:100490002BF8AE4605006946534620F00700854616
:1004A00018B020B5FFF780FEBDE820404FF00006F1
:1004B0004FF000074FF000084FF0000B21F007014C
:1004C000AC46ACE8C009ACE8C009ACE8C009ACE88F
:1004D000C0098D46704710B50446AFF30080204632
:1004E000BDE81040FFF74EBE00487047280E0020C0
:1004F00010B500241E21012001F076FA012002F03F
:10050000F7F91E21012001F0AFFA012002F0F0F905
:100510001421012001F004FA012002F0E9F914216C
:10052000012001F02FFA012002F0E2F91E21002043
:1005300001F09AFA012002F0DBF91E21002001F0FF
:1005400053FA00BF54E01E21002001F08DFA012073
:1005500002F0CEF91E21002001F046FA012002F03F
:10056000C7F91E21002001F00DFA012002F0C0F9A8
:100570001E21002001F0D4F9012002F0B9F91E215A
:10058000012001F031FA012002F0B2F91E21012010
:1005900001F06AFA012002F0ABF91E21012001F0FE
:1005A00023FA012002F0A4F91E21012001F05CFAD7
:1005B000012002F09DF91E21012001F0B1F9012076
:1005C00002F096F91E21012001F0DCF9012002F071
:1005D0008FF91E21002001F047FA012002F088F96E
:1005E0001E21002001F000FA012002F081F9641CB4
:1005F000052CA8DB1421002001F092F9012002F063
:1006000077F91421002001F0BDF9012002F070F902
:1006100010BD00BFFEE7000010B500240DE0074844
:10062000006840B1601CC4B21E2002F061F9642C65
:1006300003DB012010BD0020FCE7F0E700012142B0
:10064000002004E00021034A1154411CC8B20A28CA
:10065000F8DB70479803002010B5402002F002F943
:100660004FF480410A4800F05DF9C02001F0B2FE6D
:10067000002404E0002001F0ADFE601CC4B2102C88
:10068000F8DB4FF48041024800F04EF910BD000045
:10069000000C014010B5002414E01E21012001F0DF
:1006A000A3F91E21002001F0DFF9322002F020F929
:1006B0001E21002001F098F91E21012001F0D4F93B
:1006C000601CC4B2052CE8DB10BD704710B50120DA
:1006D00000F006F8FFF7A0FF08B101F0E5FB10BD40
:1006E00001490860704700001404014010B500245F
:1006F0001E21002001F0B8F9012002F0F9F81E21B6
:10070000002001F071F9012002F0F2F8142101201B
:1007100001F038F9012002F0EBF81421012001F07A
:10072000FFF8012002F0E4F81E21012001F05CF93D
:10073000012002F0DDF81E21012001F095F900BF33
:1007400054E01E21012001F04FF9012002F0D0F801
:100750001E21012001F088F9012002F0C9F81E21B4
:10076000002001F0DDF8012002F0C2F81E21002077
:1007700001F008F9012002F0BBF81E21002001F071
:1007800073F9012002F0B4F81E21002001F02CF9C9
:10079000012002F0ADF81E21002001F065F90120D2
:1007A00002F0A6F81E21002001F01EF9012002F03F
:1007B0009FF81E21012001F0E5F8012002F098F8D1
:1007C0001E21012001F0ACF8012002F091F81E2159
:1007D000012001F009F9012002F08AF81E21012010
:1007E00001F042F9012002F083F8641C052CA8DB1B
:1007F0001421002001F0C6F8012002F079F814213C
:10080000002001F08DF8012002F072F810BD2DE9F2
:10081000F041024600250026002000230024002786
:1008200091F803C00CF00F0591F803C00CF0100C08
:10083000BCF1000F03D091F802C04CEA050591F815
:1008400000C0BCF1000F31D0146800202BE04FF045
:10085000010C0CFA00F3B1F800C00CEA03069E424A
:1008600020D183004FF00F0C0CFA03F7BC4305FABC
:1008700003FC4CEA040491F803C0BCF1280F06D134
:100880004FF0010C0CFA00FCC2F814C00AE091F819
:1008900003C0BCF1480F05D14FF0010C0CFA00FC6D
:1008A000C2F810C0401C0828D1D31460B1F800C0B1
:1008B000BCF1FF0F34DD546800202EE000F1080C7D
:1008C0004FF0010808FA0CF3B1F800C00CEA030677
:1008D0009E4221D183004FF00F0C0CFA03F7BC436A
:1008E00005FA03FC4CEA040491F803C0BCF1280F9C
:1008F00005D100F1080C08FA0CF8C2F8148091F840
:1009000003C0BCF1480F07D100F1080C4FF00108FB
:1009100008FA0CF8C2F81080401C0828CED35460A6
:10092000BDE8F081416170470161704700BFFEE79B
:1009300010B50121022002F067F84FF4FA7001F0BF
:10094000D7FF00240FE00021042002F05DF86420AE
:1009500001F0CEFF0121042002F056F8642001F0DE
:10096000C7FF601CC4B20A2CEDDB0021022002F09C
:100970004BF810BD10B501F0ABFA01F08BFF4FF44E
:10098000A06000F067F84FF4E13002F01DF94FF479
:10099000E13002F0C7F88C200C49087082200C4925
:1009A000087096200B49087082200B49087041F6A8
:1009B0001F41312001F0F0FA01F082F801F03CFA19
:1009C00001F072FD00F050F810BD00001B00002087
:1009D0001C0000201D0000201E00002000BFFEE7BC
:1009E0007047000070B5002100230F22C47804B3C3
:1009F000154C246804F4E064C4F5E064210AC1F1F4
:100A00000403CA40447804FA03F184781440214373
:100A100009010E4C0678A155047804F01F05012445
:100A2000AC4005786D11AD0005F1E025C5F8004139
:100A300009E0047804F01F050124AC40044D067859
:100A4000761145F8264070BD0CED00E000E400E0B2
:100A500080E100E002490143024A11607047000052
:100A60000000FA050CED00E010B500F013F800F0FE
:100A700015FC00F03DFC00F05DFC00F0E5FB00F033
:100A8000B7FB00F0F1FC00F095FC00F0BBFC00F0BF
:100A900002F810BD7047704706480078012808D159
:100AA00005480078FF2804D203480078401C02491A
:100AB00008707047760000206900002010B50024FF
:100AC0001A480078012830D1FFF77CFB044618480B
:100AD000007820B116480078401E15490870144867
:100AE0000078F8B913480078E0B900F01FFD12480B
:100AF0001249097850F82100114908600F48007820
:100B00001049097888420DD00D480068806B401C60
:100B10000B49096888630C480068401C0A49086052
:100B2000FFF76FFB2046FFF751FB10BD760000205A
:100B3000690000206A000020C00800206C0000202E
:100B4000840000206B0000205000002010B500241D
:100B50000B480078012811D1FFF734FB04460948FF
:100B6000007840B908480078FF2804D20648007889
:100B7000401C054908702046FFF728FB10BD000007
:100B800076000020690000206A00002010B50024D3
:100B900013480078012821D1FFF714FB04461148BF
:100BA0000078C0B10F480078401E0E490870084612
:100BB000007860B90C48007828B92046FFF706FB9A
:100BC00000F07AFC0AE02046FFF700FB06E0204632
:100BD000FFF7FCFA02E02046FFF7F8FA10BD00002C
:100BE000760000206A0000206900002010B50B4844
:100BF000007890B900F09AFC09480078094908701B
:100C000009480749097850F8210008490860084652
:100C1000006807490860FFF7DCFA10BD7600002085
:100C20006C0000206B000020C00800208400002021
:100C30007C000020704700002DE9FE4F06460F465D
:100C400090461C464FF00009FFF7BCFA81461F484A
:100C5000007828B14846FFF7B9FA3C20BDE8FE8F7E
:100C60001B4850F8240060BB0120194941F82400BA
:100C70004846FFF7ABFA002342463946304600F0BB
:100C80005FF98246002000900190034602465146DB
:100C90000290204600F060FC054635B90D4800780A
:100CA00001280CD100F008FC09E0FFF78BFA81461F
:100CB0000020074941F824004846FFF787FA2846F4
:100CC000CCE74846FFF782FA2820C7E769000020F2
:100CD000C0080020760000202DE9F04F85B0814645
:100CE0008A4693461C46DDE90F78129D002003904A
:100CF000FFF768FA03902348007830B10398FFF7B4
:100D000065FA3C2005B0BDE8F08F1F4850F824007C
:100D100088BB01201C4941F824000398FFF756FACC
:100D20002A464146384600F027FD2B465A46514692
:100D3000484600F005F904901198CDE9008002952D
:100D40003A4620460E9B049900F006FC064636B94A
:100D50000E48007801280CD100F0AEFB09E0FFF747
:100D600031FA03900020084941F824000398FFF766
:100D70002DFA3046C6E7FFE70398FFF727FA282049
:100D8000C0E7000069000020C008002076000020B5
:100D9000704770472DE9F04106460F4614464FF064
:100DA00000081548007818B112202070BDE8F081C5
:100DB000FFF708FA8046FF2E03D11048006890F82C
:100DC00032600F4850F826502DB94046FFF7FEF923
:100DD00043202070EAE7012D05D14046FFF7F6F9E0
:100DE00043202070E2E7EF644046FFF7EFF9002070
:100DF000207000BFDAE70000690000207C000020BE
:100E0000C008002070B505460026FFF7DBF906464E
:100E1000234850F8254024B93046FFF7D7F946203B
:100E200070BD012C04D13046FFF7D0F94320F7E71D
:100E300094F8300000F0080060B314F8300F00F0B0
:100E4000F700207014F83009F8B9E06AC8B93434F2
:100E5000A07814490978084312490870207812498B
:100E6000085C6178084314F834190F4A505430462E
:100E7000FFF7ACF90D480078012809D100F01CFB00
:100E800006E03046FFF7A2F902E03046FFF79EF990
:100E90000020C5E73046FFF799F94420C0E700007D
:100EA000C00800206D0000206E00002076000020A9
:100EB000704700002DE9F04707460D464FF0000A45
:100EC000002028606860FFF77DF98246FF2F03D17C
:100ED0001948006890F83270184850F827402CB92B
:100EE0005046FFF773F94320BDE8F087012C04D189
:100EF0005046FFF76BF94320F6E7207C00F0010035
:100F000020B95046FFF762F94520EDE70026D4F8F6
:100F10000C90D4F808805046FFF758F900E0761C92
:100F200058F8041B0029FAD0B0002860A9EB06008D
:100F3000800068600020D7E77C000020C008002007
:100F400070B5044610464FF080750560051F2846B1
:100F50002C606FF00106051F28462E604FF01236F8
:100F6000051F28462E604FF00336051F28462E60C9
:100F70004FF00236051F28462E607610051F2846C2
:100F80002E60051F284629604FF01136051F2846A0
:100F90002E604FF01036051F28462E604FF00936A0
:100FA000051F28462E604FF00836051F28462E6084
:100FB0004FF00736051F28462E604FF00636051FF6
:100FC00028462E604FF00536051F28462E604FF04C
:100FD0000436051F28462E6070BD00002DE9F04143
:100FE00005464FF00008FFF7EDF88046FF2D05D1CC
:100FF0002048006890F83250012608E01D4800683B
:1010000090F83200A84201D1012600E000261A48DB
:1010100050F825402CB94046FFF7D8F84820BDE8E5
:10102000F081012C04D14046FFF7D0F84320F6E7C9
:1010300094F834701148C05D94F8351088430F4916
:10104000C8550846C05D30B994F836100C48007891
:1010500088430B49087094F8300040F0080084F889
:1010600030004046FFF7B2F8012E01D100F024FA1B
:101070000020D4E77C000020C00800206E00002083
:101080006D0000207047000070B505460026174827
:10109000007800B170BD1648007800B1FAE71DB3C2
:1010A000FFF790F806461348006890F8344012485D
:1010B000005D1049096891F8351088430E490855BC
:1010C0000846005D40B90B48006890F836100B48A0
:1010D000007888430949087006480068C5623046B0
:1010E000FFF774F800F0E8F900BFD3E769000020CB
:1010F0006A0000207C0000206E0000206D000020AF
:1011000070B5002600F072F8FFF75CF8064631482B
:101110000068401C2F4908603046FFF757F82E48FA
:101120000078012853D12D48007820B1012804D03F
:10113000022809D103E001250BE0002509E0012583
:1011400001202649087004E0012500202349087089
:1011500000BF00BF05B970BD2148046833E0FFF748
:1011600031F80646E06A50B3E06A401EE062E06A89
:1011700028BB94F8300000F0370040B114F8300F6D
:1011800000F0C800207001206070303C02E00020B8
:1011900084F8310094F8300000F0080078B9343455
:1011A000A0781049097808430E49087020780E4944
:1011B000085C6178084314F834190B4A5054646988
:1011C0003046FFF703F894F832003F28C7D100BF3C
:1011D000C1E7000094000020760000208C00002071
:1011E000880000206D0000206E0000207047000085
:1011F0002DE9F0415021114800F02CF900250DE0B7
:10120000681C86B20D4800EB051400EB06170020A1
:10121000207067600AA0E060681C85B2042DEFD3DF
:10122000064800EB051400202070606004A0E06018
:10123000024804490860BDE8F08100007004002005
:101240003F0000005800002070B5C821114800F090
:1012500001F900230FE0581C85B203EB83000D4910
:1012600001EB800405EB850001EB80060020207077
:101270006660581C83B2092BEDD303EB830005494C
:1012800001EB80040020207060600846024908607D
:1012900070BD0000A80300205400002000200A496F
:1012A00008600A4908700A4908700A4908700A4922
:1012B00008700A4908600A4908600A4908600A4932
:1012C00008600A49087070479400002069000020F7
:1012D0006A000020770000207600002050000020E7
:1012E00078000020640000206000002068000020DA
:1012F00000210A4A1170002004E00021084A11541C
:10130000411CC8B20828F8D30021064A1170064AC9
:101310001170064A1160064A116070476D00002086
:101320006E0000206B0000206C0000208400002074
:101330007C00002070B54FF47C71194800F08AF8E9
:101340004FF48071174800F085F8002413E0601C0A
:10135000C5B2C4EBC40000EB4000114901EB8003AF
:10136000C5EBC50000EB400001EB80065E610EA0FE
:10137000D864601CC4B20B2CE9D3C4EBC40000EBEE
:101380004000074901EB80030020586106A0D864A3
:1013900000200649086002480549086070BD000049
:1013A000C0090020C00800203F0000008800002085
:1013B0008000002000B587B00320002180220A4B66
:1013C000CDE90132CDE903104FF6FF703F23074A04
:1013D00000900748FFF780FC06AA06A13F20FFF710
:1013E000D9FC07B000BD0000C0060020BC080020EA
:1013F0008D16000875432F4F532D49492049646CC1
:101400006500000000B587B00320002180220A4B50
:10141000CDE90132CDE903104FF6FE703E23074AB5
:1014200000900748FFF758FC06AA06A13E20FFF7E8
:10143000B1FC07B000BD0000C0040020BC060020C5
:10144000B516000875432F4F532D49492053746139
:101450007400000004E0002200F8012B4A1E91B243
:101460000029F8D1704700002DE9F041782110489B
:10147000FFF7F0FF00240DE0601C86B204EB44008F
:101480000B4901EBC00506EB460001EBC0072F60DE
:10149000601C84B2042CEFD304EB4400044901EB3C
:1014A000C00500202860084602490860BDE8F081B8
:1014B000B00D00209000002010B50024FEF782FE41
:1014C000044613480078F8B912480078E0B900F0F3
:1014D0002DF811481149097850F821001049086089
:1014E0000E4800780F49097888420DD00C480068F2
:1014F000806B401C0A49096888630B480068401CDF
:1015000009490860FEF776FE2046FEF75FFE10BD33
:10151000690000206A000020C00800206C00002044
:10152000840000206B000020500000200649074A7C
:101530001278885C0649095C034A515C01EBC001E2
:10154000044A117070470000682C00086D000020EC
:101550006E0000206C0000202DE9F84F05460F4674
:1015600090469946DDE90AAB00200090FEF72AFE7E
:1015700000903F480468002C74D0183454F8040CD0
:101580003B4908600098FEF721FE44F8187CA576D8
:10159000002020766076606144F814BC44F80CACFE
:1015A00044F8108C0C9824F8080C24F8069C0020B1
:1015B000E077E810207705F00700E076217F012032
:1015C0008840A077E17E012088406077002060603D
:1015D000E060A0602062A0626062E062206325A0FB
:1015E0006063183C002606E0002104F1500040F83A
:1015F0002610701CC6B2002EF6D02046FFF71AFB4C
:101600002046FFF7C5FBFEF7DDFD00901A4840F8C5
:1016100025401A48006860610020A06117480068F2
:1016200010B1164800688461144804603434A0780E
:101630001349097808431249087020781149085C59
:101640006178084314F834190E4A50540E48007853
:10165000401C0D4908700098FEF7B8FD0020BDE859
:10166000F88FFFE70098FEF7B1FD4220F7E7000092
:10167000800000203F000000C008002088000020FB
:101680006D0000206E00002077000020002400BFC5
:1016900000BFFEF797FD044605480068401C04495A
:1016A00008602046FEF792FDFFF773FBF1E70000AC
:1016B00078000020002400BF02E02820FFF7E4FCAF
:1016C000194800780028F8D0184800686421B0FB59
:1016D000F1F0164908600846006828B9002014494E
:1016E0000870FF20FFF77AFC00BFFEF76BFD044691
:1016F000104800681049086000200E490860204624
:10170000FEF764FD0C48006808490968B0FBF1F079
:10171000C0F1640006490870FFF7CAFB00F00EF83C
:101720001420FFF7B1FCE0E7680000206000002013
:101730005C00002078000020640000207CB50025BB
:1017400014E069462846FFF7B5FB064666B9094826
:1017500050F8254044B1012C06D0D4E9020100EB39
:10176000810060640198A064681CC5B23F2DE8D96F
:101770007CBD0000C008002002F0010343B102F06C
:1017800002032BB102E0491E002308C00029FAD150
:10179000704700000A48006840F0040008490860EB
:1017A0000846006840F0020008600648006840F003
:1017B00004000449086000BF00BF30BF704700004C
:1017C0000070004010ED00E0014908607047000023
:1017D000A0000E4229B1064AD2690243044BDA61E5
:1017E00004E0034AD2698243014BDA61704700008A
:1017F0000010024029B1064A92690243044B9A61E3
:1018000004E0034A92698243014B9A6170470000E9
:101810000010024029B1064AD2680243044BDA6044
:1018200004E0034AD2688243014BDA60704700004B
:101830000010024030B500210022002400232D4D6D
:101840006D6805F00C0121B1042905D0082923D1C8
:1018500005E0294D056022E0274D05601FE0254D7C
:101860006D6805F47012234D6D6805F4803402250F
:1018700005EB92421CB9214D554305600BE01D4D0F
:101880006D6805F400351DB11C4D5543056002E03F
:10189000194D5543056002E0174D056000BF00BFBC
:1018A000144D6D6805F0F0010909154D6B5C056874
:1018B000DD4045600F4D6D6805F4E061090A104D8B
:1018C0006B5C4568DD4085600A4D6D6805F46051CC
:1018D000C90A0B4D6B5C4568DD40C560054D6D6800
:1018E00005F44041890B074D6B5CC568B5FBF3F50A
:1018F000056130BD0010024000127A0000093D0071
:101900003A0000204A0000207047000010B504464D
:10191000A1B2024800F003FD10BD00000004004029
:1019200070B504460D4600200F49087017E02CB929
:101930000E480078401C0D49087004E00B48007800
:10194000401E0A49087009480078FFF7DFFF0720AA
:1019500000F0CEFF04480078401C0349087002489C
:101960000078A842E3DB70BD180000201B000020B7
:1019700010B50446A1B2024800F0D3FC10BD00002F
:101980000004004070B504460D4600200F49087061
:1019900017E02CB90E480078401C0D49087004E08F
:1019A0000B480078401E0A49087009480078FFF784
:1019B000DFFF072000F09CFF04480078401C03492B
:1019C000087002480078A842E3DB70BD18000020D0
:1019D0001C00002010B50446A1B2024800F0A3FC90
:1019E00010BD00000004004070B504460D46002004
:1019F0001249087018E02CB911480078401E1049AF
:101A0000087004E00E480078401C0D4908700C482E
:101A10000078FFF7DFFF0B48007800F069FF074808
:101A20000078401C0549087004480078A842E2DBB1
:101A30000348017804A0FEF721FC70BD18000020C7
:101A40001D0000201A0000206265617574793A2536
:101A50006400000010B50446A1B2024800F065FC25
:101A600010BD00000004004070B504460D46002083
:101A70001049087018E02CB90F480078401E0E4934
:101A8000087004E00C480078401C0B4908700A48B4
:101A90000078FFF7DFFF0948007800F029FF0548CC
:101AA0000078401C0349087002480078A842E2DB35
:101AB00070BD0000180000201E0000201A00002049
:101AC00000B589B001210220FFF784FE01210C201E
:101AD000FFF790FEC020ADF820001C208DF82300F9
:101AE00003208DF8220008A93648FEF790FE032057
:101AF000ADF820001C208DF8230003208DF8220073
:101B000008A93148FEF783FE40F2CF70ADF8180007
:101B100040F2CF20ADF814000020ADF81A00ADF867
:101B2000160005A9294800F003FC6020ADF8040068
:101B30000120ADF8060026480078ADF80A00002024
:101B4000ADF80C0001A9214800F098FA0120ADF889
:101B5000060020480078ADF80A0001A91B4800F0F3
:101B6000D9FA0821194800F027FB0120ADF806003A
:101B700019480078ADF80A0001A9144800F02AFBC2
:101B80000821124800F076FB0120ADF8060013484A
:101B90000078ADF80A0001A90C4800F075FB082197
:101BA0000A4800F0AFFB0121084800F03EFA01218D
:101BB000064800F01FFA0121044800F02AFA09B093
:101BC00000BD000000080140000C0140000400407E
:101BD0001B0000201C0000201D0000201E00002013
:101BE00010B5044604F0010020B120211748FEF78B
:101BF0009BFE03E020211548FEF794FE04F002004E
:101C000020B140211148FEF78FFE03E040210F482C
:101C1000FEF788FE04F0040020B180210B48FEF797
:101C200083FE03E080210948FEF77CFE04F00800F3
:101C300028B14FF480710548FEF776FE04E04FF4BA
:101C400080710248FEF76EFE10BD0000000C0140DE
:101C500010B500F001F810BD0CB500200190009007
:101C60003348006840F480303149086000BF304894
:101C7000006800F4003000900198401C019000982A
:101C800018B90198B0F5A06FF1D12948006800F4A7
:101C9000003010B10120009001E000200090009879
:101CA000012843D12348006840F010002149086012
:101CB0000846006820F0030008600846006840F00D
:101CC000020008601A4840681949486008464068A0
:101CD00048600846406840F48060486008464068B4
:101CE00020F47C1048600846406840F4E8104860E2
:101CF0000846006840F08070086000BF0C4800682B
:101D000000F000700028F9D00948406820F0030076
:101D1000074948600846406840F00200486000BF3C
:101D20000348406800F00C000828F9D10CBD000001
:101D3000001002400020024010B5002414210020B1
:101D4000FFF792FE012000F0D3FD14210020FFF7E1
:101D50004BFE012000F0CCFD14210020FFF7E0FD38
:101D6000012000F0C5FD00BF0FE028210120FFF792
:101D7000D7FD012000F0BCFD28210020FFF7D0FD99
:101D8000012000F0B5FD601CC4B20A2CEDDB14216B
:101D90000120FFF7C5FD012000F0AAFD142101205C
:101DA000FFF762FE012000F0A3FD14210120FFF7E0
:101DB0001BFE4FF4FA6000F09BFD14210120FFF799
:101DC00013FE012000F094FD14210120FFF74CFECA
:101DD000012000F08DFD14210020FFF7D3FD01202C
:101DE00000F086FD00240FE028210120FFF7CAFD46
:101DF000012000F07DFD28210020FFF7C3FD012018
:101E000000F076FD601CC4B20A2CEDDB1421012029
:101E1000FFF7B8FD012000F06BFD14210020FFF753
:101E200023FE012000F064FD14210020FFF7DCFDFB
:101E3000012000F05DFD10BD08B501210820FFF76D
:101E4000D9FC10208DF8030003208DF8020047F222
:101E5000E010ADF8000069460148FEF7D8FC08BD67
:101E6000000C0140042808D14FF0E021096941F03D
:101E700004014FF0E022116107E04FF0E021096911
:101E800021F004014FF0E0221161704710B50548C0
:101E90000078012805D1FEF7FFFDFFF731F9FEF7C5
:101EA0000DFE10BD7600002010B500214FF4FE702D
:101EB000FFF7B0FC00F001F810BD10B501210807D4
:101EC000FFF788FC0120FFF77FFCFFF763FC10BDE4
:101ED00010B51348006840F0010011490860084639
:101EE0004068104908400E494860084600680E499D
:101EF00008400B4908600846006820F4802008600C
:101F00000846406820F4FE0048604FF41F008860D7
:101F1000FFF79EFE4FF000600449086010BD00000E
:101F2000001002400000FFF8FFFFF6FE08ED00E0A1
:101F300010B50121880700F087F801281FD1124849
:101F40000078E0B1104800781049097888420FD134
:101F50000F480078401C0E49087008460078042895
:101F60000DDB01200B49087000200949087006E0CC
:101F700000200749087004480078044908700121CE
:101F8000880700F043F810BD39000020020000204F
:101F900003000020000000207FB505460C4601210B
:101FA0000846FFF717FCADF80850ADF804400020D4
:101FB000ADF80600ADF80A0001A94FF0804000F02E
:101FC000B7F901221146900700F04FF80121880768
:101FD00000F01FF81C208DF8000001208DF8010092
:101FE00003208DF8020001208DF803006846FEF7FB
:101FF000F9FC7FBD21B1028842F08002028004E03A
:1020000002884FF67F731A4002807047CA430282EB
:10201000704721B1028842F00102028004E0028888
:102020004FF6FE731A400280704731B1B0F8442079
:1020300042F40042A0F8442005E0B0F84420C2F386
:102040000E02A0F84420704730B50246002000235D
:102050000024158A05EA0103958905EA010413B1F4
:102060000CB1012000E0002030BD1AB183890B4380
:10207000838102E083898B438381704770B500249C
:1020800000220023058C4FF6FE7635400584028C35
:102090008388048B4FF68F752C40B51E2C400D881D
:1020A0002C43751E2A400D892A434D882A43144D1E
:1020B000A8420BD0134DA84208D0134DA84205D01A
:1020C000124DA84202D0124DA84213D14FF6F77517
:1020D0002A404D892A434FF6FB752A408D882A43B2
:1020E0004FF6FF652B404FF6FF552B408D892B4354
:1020F000CD892B4383800483CD888586028470BD7F
:10210000002C0140003401400040014000440140E7
:102110000048014070B5002400220023058C4FF6D2
:10212000EF7635400584028C8388048B48F6FF7572
:102130002C404FF6FF452C400D884FF6FF7606EAFF
:1021400005252C434FF6DF752A400D8906EA051553
:102150002A434D8806EA05152A43154DA84202D0A8
:10216000144DA8421DD14FF67F752A404D894FF678
:10217000FF7606EA05152A434FF6BF752A408D887B
:1021800006EA05152A434FF6FF352B404FF2FF753F
:102190002B408D8906EA85052B43CD8906EA850506
:1021A0002B4383800483CD880587028470BD0000A3
:1021B000002C0140003401400A460021018B4FF2FF
:1021C000FF7319404FF6FF7303EA0223194301839B
:1021D0007047000070B5002400220023058C4FF6E4
:1021E000FF6635400584028C8388848B4FF68F759B
:1021F0002C404FF6FC752C400D882C434FF6FF55B4
:102200002A400D894FF6FF7606EA05252A434D88B8
:1022100006EA05252A43154DA84202D0144DA842CE
:102220001DD14FF2FF752A404D894FF6FF7606EA21
:1022300005252A434FF6FF352A408D8806EA0525F5
:102240002A434EF6FF752B404DF6FF752B408D89C6
:1022500006EA05152B43CD8906EA05152B43838035
:102260008483CD888587028470BD0000002C0140E6
:10227000003401400A460021818B4FF6F773194064
:10228000114381837047000070B5002200230024B1
:10229000058C4EF6FF7635400584038C8488828B4E
:1022A00048F6FF752A404FF6FF452A400D884FF645
:1022B000FF7606EA05252A434DF6FF752B400D896A
:1022C00006EA05352B434D8806EA05352B430B4DB1
:1022D000A84202D00A4DA84208D14BF6FF752C4007
:1022E0008D894FF6FF7606EA85152C43848082831C
:1022F000CD88A0F84050038470BD0000002C014040
:10230000003401400A460021818B4FF2FF731940CF
:102310004FF6FF7303EA02231943818370478186D6
:1023200070470187704781877047A0F84010704759
:10233000002202881D4B98420ED01D4B98420BD0B4
:10234000B0F1804F08D01B4B984205D01A4B9842F1
:1023500002D01A4B984204D14FF68F731A404B8823
:102360001A43174B984207D0164B984204D04FF6A9
:10237000FF431A40CB881A4302808B8883850B88E1
:1023800003850A4B98420BD0094B984208D00E4B5C
:10239000984205D00D4B984202D00D4B984201D186
:1023A0000B7A03860123838270470000002C0140D2
:1023B000003401400004004000080040000C0040D0
:1023C0000010004000140040004001400044014063
:1023D0000048014070B504464FF480411648FEF7AE
:1023E000A1FA00251AE04FF400511348FEF79AFABB
:1023F00004F0010028B14FF480510F48FEF794FA21
:1024000004E04FF480510C48FEF78CFA4FF4005171
:102410000948FEF789FA6410681CC5B2082DE2DB92
:102420004FF400510448FEF77DFA4FF48051024802
:10243000FEF778FA70BD0000000C014010B5402096
:1024400000F010FA4FF480411648FEF76BFAC020F6
:10245000FFF7C0FF002404E00020FFF7BBFF601C73
:10246000C4B2102CF8DB4FF480410E48FEF75CFA42
:10247000642000F03DFA4FF480410A48FEF752FA1A
:10248000C020FFF7A7FF002404E0FF20FFF7A2FF12
:10249000601CC4B2102CF8DB4FF480410148FEF7F9
:1024A00043FA10BD000C014010B54FF400510B4829
:1024B000FEF73AFA4FF480410848FEF735FA4FF438
:1024C00080510648FEF730FA892000F0CBF9FEF77C
:1024D000C3F8642000F00CFA10BD0000000C0140AD
:1024E00010B5002400BF44E01E210020FFF7BCFA15
:1024F000012000F0FDF91E210020FFF775FA0120F0
:1025000000F0F6F914210020FFF70AFA012000F08C
:10251000EFF91E210120FFF767FA012000F0E8F92A
:102520001E210120FFF7A0FA1E210120FFF75CFA0F
:10253000012000F0DDF91E210120FFF795FA0120AE
:1025400000F0D6F914210120FFF7EAF9012000F08C
:10255000CFF91E210020FFF787FA012000F0C8F90B
:102560001E210020FFF740FA012000F0C1F9601C95
:10257000C4B2032CB8DB10BD10B5002400BF44E08A
:102580001E210120FFF730FA012000F0B1F91E21D1
:102590000120FFF769FA012000F0AAF914210120B7
:1025A000FFF7F0F9012000F0A3F91E210020FFF74A
:1025B0005BFA012000F09CF91E210020FFF714FABD
:1025C0001E210020FFF750FA012000F091F91E2192
:1025D0000020FFF709FA012000F08AF914210020F9
:1025E000FFF7D0F9012000F083F91E210120FFF749
:1025F000FBF9012000F07CF91E210120FFF734FADD
:10260000012000F075F9601CC4B2032CB8DB10BDCA
:1026100010B540F22551084800F032F850B1064894
:1026200000F0EAF8C4B2204600F008F92021024880
:1026300000F004F810BD00000044004001F40072F6
:10264000B2F5007F00D100BFCA430280704721B1BC
:10265000828942F40052828104E082894DF6FF7340
:102660001A408281704702460020B1F5007F00D1F8
:1026700000BF13880B400BB1012000E00020704721
:1026800070B50246002400230025002040F66A169B
:10269000B14200D100BFC1F3421501F01F03012672
:1026A00006FA03F3012D02D19689334006E0022D8C
:1026B00002D1168A334001E0968A33400C1201267B
:1026C00006FA04F41688344013B10CB1012000E07E
:1026D000002070BDF0B50346002400260025002030
:1026E00040F66A17B94200D100BF1846C1F3421440
:1026F00001F01F06012707FA06F5012C01D10C3065
:1027000004E0022C01D1103000E014301AB1076847
:102710002F43076002E00768AF430760F0BD000089
:102720002DE9F04786B005460E460024A24600BFBC
:10273000A1460027B08900B100BF2F462C8A4CF675
:10274000FF700440F08804432C82AC894EF6F310ED
:102750000440B08831890843718908430443AC813F
:10276000AC8A4FF6FF400440B0890443AC8201A814
:10277000FFF760F81F48874202D1DDF810A001E0A2
:10278000DDF80CA0A88900F4004040B10AEBCA00B3
:1027900000EB0A1031684900B0FBF1F807E00AEBE2
:1027A000CA0000EB0A1031688900B0FBF1F8642020
:1027B000B8FBF0F004012009642101FB1089A8890D
:1027C00000F4004040B1322000EBC900B0FBF1F052
:1027D00000F00700044308E0322000EB09106421F8
:1027E000B0FBF1F000F00F0004432C8106B0BDE80F
:1027F000F08700000038014001468888C0F30800D7
:102800007047C1F308028280704700BFFEE70000F6
:1028100010B50948007859280DD107484078482854
:1028200009D10548C0785A2805D1034800794928BC
:1028300001D100F013F910BD980300200749084AA0
:102840001278885406490978491C054A11701146C6
:1028500009780F2901DB00211170704798030020CF
:102860003900002010B504464FF480410748FEF7B8
:1028700059F82046FFF7AEFD4FF480410348FEF7BC
:1028800053F8022000F034F810BD0000000C0140A5
:1028900000BF704710B56FF00400FFF7E3FA10486F
:1028A00000681049B0FBF1F00F4908700C4800684F
:1028B0000C49B0FBF1F441F28830444305200B4948
:1028C00008804FF0E020006940F002004FF0E02166
:1028D000086108464461006940F00100086110BDCC
:1028E0000400002000127A00300000203200002096
:1028F00070B504460F480078A0B10F48007888B939
:102900000E480088844206DB0C48008894FBF0F5F2
:10291000284600F01DF80948008894FBF0F100FB00
:10292000114084B24FF47A7104FB01F000F016F804
:1029300070BD0000760000206900002032000020F9
:1029400010B5FEF703F910BD10B5FEF71FF910BD65
:1029500010B504462046FEF797FB10BD2DE9F04761
:10296000074600264FF0E020D0F814901148007878
:1029700007FB00F800BFFFF7E3FF4FF0E020856999
:1029800011E04FF0E0208469AC420CD0AC4202D29E
:10299000281B064403E0A9EB04002844064425460E
:1029A000464500D300E0ECE700BFFFF7CDFFBDE8F0
:1029B000F08700003000002070B504460D46E1B2FB
:1029C0000548FFF71EFF00BF40210348FFF74BFEFD
:1029D0000128F9D1204670BD0038014001E0FFF721
:1029E0002DFDFCE710B5FDF7C5FF0A23044A0021C1
:1029F0000448FEF721F9FEF7F9F8002010BD0000A9
:102A000094010020E12A00082DE9F04105460E4618
:102A10000024A04619E0002713E000240EE0012E58
:102A200004D10C49085DFFF7DBF803E00A49085DB3
:102A3000FFF7D6F80220FFF75BFF641C082CEEDBE3
:102A40007F1C082FE9DB08F10108A845E3DBBDE89E
:102A5000F08100001F0000202700002010B5124860
:102A6000807808281AD2DFE800F01904070A0D1050
:102A70001316FDF73BFE15E0FDF73AFD12E0FFF7F8
:102A80002FFD0FE0FFF778FD0CE0FFF755F909E0A7
:102A9000FDF700FE06E0FDF74BFF03E000200249D2
:102AA000887000BF00BF10BD9803002012E00A48E4
:102AB000007801280BD100200749087007490870E9
:102AC000FFF7A6FE0620FEF79DF9FDF7B9FD0620EB
:102AD000FEF784FAEBE70000000000203900002038
:102AE00070B50446002500BFFDF76CFB05460723C3
:102AF000084A00210848FEF79FF80623074A0021EC
:102B00000748FEF799F80A20FEF768FA2846FDF70D
:102B10005DFB70BD94020020AD2A000894030020E4
:102B2000DD29000810B586B0044601210420FEF717
:102B300061FE01214804FEF74DFE0420ADF81400AB
:102B400003208DF8160018208DF8170005A91C48E1
:102B5000FDF75DFE0820ADF8140004208DF8170085
:102B600005A91748FDF753FE26208DF80000032025
:102B70008DF8010002208DF8020001208DF803007D
:102B80006846FDF72FFF01940020ADF80800ADF86E
:102B90000A00ADF80C00ADF810000C20ADF80E00E6
:102BA00001A90848FFF7BCFD012240F22551054864
:102BB000FFF790FD01210348FFF749FD06B010BD66
:102BC000000801400044004010B586B004460121D1
:102BD00044F20400FEF70EFE4FF40070ADF814004E
:102BE00003208DF8160018208DF8170005A91C4841
:102BF000FDF70DFE4FF48060ADF8140004208DF851
:102C0000170005A91648FDF702FE25208DF80000E3
:102C100003208DF801008DF8020001208DF80300DB
:102C20006846FDF7DFFE01940020ADF80800ADF81E
:102C30000A00ADF80C00ADF810000C20ADF80E0045
:102C400001A90848FFF76CFD002240F22551054814
:102C5000FFF740FD01210348FFF7F9FC06B010BD66
:102C6000000801400038014000000100020001009E
:102C70000300010002000100040001000200010045
:102C80000300010002000100050001000200010034
:102C90000300010002000100040001000200010025
:102CA0000300010002000100060001000200010013
:102CB0000300010002000100040001000200010005
:102CC00003000100020001000500010002000100F4
:102CD00003000100020001000400010002000100E5
:102CE00003000100020001000700010002000100D2
:102CF00003000100020001000400010002000100C5
:102D000003000100020001000500010002000100B3
:102D100003000100020001000400010002000100A4
:102D20000300010002000100060001000200010092
:102D30000300010002000100040001000200010084
:102D40000300010002000100050001000200010073
:102D50000300010002000100040001000200010064
:102D60000300010002000100882D0008000000207F
:102D70009800000028010008202E0008980000207C
:102D8000F00F0000440100080000000000A24A0407
:102D9000000000000000000001020304060708090B
:102DA00000C80A00000000080C040602030109091B
:102DB00001030206040C08000000000000000000EF
:102DC00000000000000001020304010203040607E2
:102DD00008090204060800000000000000000000CE
:102DE00000000000000000000000000000000000E3
:102DF00000000000000000000000000000000000D3
:102E000000000000000000000000000000000000C2
:102E100000000000000000000000000000000000B2
:04000005080001915D
:00000001FF
