:020000040800F2
:1000000088140020D5010008290A00087509000895
:10001000250A0008630600089F270008000000006A
:10002000000000000000000000000000A51800080B
:10003000130700080000000063020008291E0008E2
:10004000EF010008EF010008EF010008EF010008D0
:10005000EF010008EF01000815070008EF01000894
:10006000EF010008EF010008EF010008EF010008B0
:10007000EF010008EF010008EF010008EF010008A0
:10008000EF010008EF010008EF010008EF01000890
:10009000EF010008EF010008EF010008EF01000880
:1000A000EF010008EF010008EF010008EF01000870
:1000B000CD1E0008EF010008EF010008EF01000865
:1000C000EF010008EF010008EF010008EF01000850
:1000D000EF010008EF010008A5250008EF01000866
:1000E000EF010008EF010008EF010008EF01000830
:1000F000EF010008EF010008EF010008EF01000820
:10010000EF010008EF010008EF010008EF0100080F
:10011000EF010008EF010008EF010008EF010008FF
:10012000EF010008EF010008EF010008EF010008EF
:1001300000F002F800F03FF80AA090E8000C8244BA
:100140008344AAF10107DA4501D100F034F8AFF297
:10015000090EBAE80F0013F0010F18BFFB1A43F0A5
:10016000010318476C2C00008C2C0000103A24BFAF
:1001700078C878C1FAD8520724BF30C830C144BF0C
:1001800004680C607047000000230024002500264E
:10019000103A28BF78C1FBD8520728BF30C148BFEA
:1001A0000B607047642900F0D180002070471FB5B4
:1001B0001FBD10B510BD00F091F91146FFF7F7FF14
:1001C00002F036FC00F0AFF903B4FFF7F2FF03BC16
:1001D00002F084FB0948804709480047FEE7FEE734
:1001E000FEE7FEE7FEE7FEE7FEE7FEE7FEE7FEE7E7
:1001F00004480549054A064B704700006D1E00087B
:1002000031010008880E002088140020881000208A
:1002100088100020EFF3108072B6704780F31088CA
:100220007047204C204D25604FF0000484F309886E
:100230001E4C4FF0010525701D4C4FF08055256078
:1002400062B6FEE730B41A4C4FF08055256030BCE2
:10025000704730B4164C4FF08055256030BC704765
:1002600000BF72B6EFF3098028B1203880E8F00FA4
:1002700010490968086000B50F4880475DF804EB35
:100280000E480F490A7802700A480E490A6802604F
:10029000106890E8F00F203080F309884EF0040ECB
:1002A00062B6704720ED00E00000FFFF76000020FE
:1002B00004ED00E07C000020211000086B0000200D
:1002C0006C00002084000020704700000FB4044937
:1002D00010B503AA029800F0D3F810BC5DF814FB27
:1002E000340000202DE9F0410E4604460020206233
:1002F0002046E168884730B3252805D0D4E901219C
:100300009047206A401CF2E7E168204600278847B2
:10031000050018D0A5F14100192802D820354FF466
:1003200000673246294620462760FFF73BFF40B171
:10033000012804D0F61D26F007060836D8E7361D3A
:10034000D6E72846DAE7206ABDE8F0812DE9F041DA
:100350000646002410687529314616A510D0AFF363
:100360000080002802DA404213A507E031688A07BE
:1003700001D512A502E0490704D511A5012401E029
:10038000AFF3008000210A2206F1240709E0B0FB48
:10039000F2FCB0FBF2F302FB1C003030785418463C
:1003A000491C0028F3D123462A463046BDE8F041D7
:1003B00000F00CB8000000002D0000002B00000031
:1003C0002000000070477047704770472DE9F047E4
:1003D0000D4699469246044600F1240801688806B5
:1003E00004D5E06921F01001216000E00120A8425D
:1003F00001DD471B00E00027A1697A1902EB090023
:10040000081AA0612078C00602D42046AFF300800D
:10041000002608E0D4E901211AF806009047206A76
:10042000401C761C20624E45F4DB2078C0060AD5BD
:100430002046AFF3008006E0D4E901213020904748
:10044000206A401C2062381EA7F10107F4DC07E097
:10045000D4E9012118F805009047206A401C206269
:10046000281EA5F10105F3DC2046AFF300802078BB
:10047000000602D50220BDE8F0870120FBE700005E
:10048000074B70B50D467B4400F011F80446284632
:1004900000F020F810B14FF0FF3070BD204670BD65
:1004A0007B25000001694A1C02610878704700B58D
:1004B0008FB0CDE901310021059105497944CDE99D
:1004C000031011466846FFF70DFF0FB000BD000096
:1004D000E5FFFFFF007B00F080007047754600F0ED
:1004E0002BF8AE4605006946534620F007008546C6
:1004F00018B020B5FFF77CFEBDE820404FF00006A5
:100500004FF000074FF000084FF0000B21F00701FB
:10051000AC46ACE8C009ACE8C009ACE8C009ACE83E
:10052000C0098D46704710B50446AFF300802046E1
:10053000BDE81040FFF748BE00487047280E002075
:1005400010B500241E21012001F01CFA012002F048
:10055000F5F91E21012001F055FA012002F0EEF913
:100560001421012001F0AAF9012002F0E7F9142179
:10057000012001F0D5F9012002F0E0F91E21002050
:1005800001F040FA012002F0D9F91E21002001F00B
:10059000F9F900BF54E01E21002001F033FA0120D8
:1005A00002F0CCF91E21002001F0ECF9012002F04C
:1005B000C5F91E21002001F0B3F9012002F0BEF9B7
:1005C0001E21002001F07AF9012002F0B7F91E2166
:1005D000012001F0D7F9012002F0B0F91E2101201D
:1005E00001F010FA012002F0A9F91E21012001F00A
:1005F000C9F9012002F0A2F91E21012001F002FA3E
:10060000012002F09BF91E21012001F057F9012081
:1006100002F094F91E21012001F082F9012002F07C
:100620008DF91E21002001F0EDF9012002F086F97C
:100630001E21002001F0A6F9012002F07FF9641CC0
:10064000052CA8DB1421002001F038F9012002F06C
:1006500075F91421002001F063F9012002F06EF910
:1006600010BD00BFFEE7000010B500240DE00748F4
:10067000006840B1601CC4B21E2002F05FF9642C17
:1006800003DB012010BD0020FCE7F0E70001214260
:10069000002004E00021034A1154411CC8B20A287A
:1006A000F8DB70479803002010B54FF480410A48EA
:1006B00000F05CF9C02001F05BFE002404E00020A3
:1006C00001F056FE601CC4B2102CF8DB4FF48041E0
:1006D000014800F04DF910BD000C014010B5002498
:1006E00014E01E21012001F04DF91E21002001F02F
:1006F00089F9322002F022F91E21002001F042F98E
:100700001E21012001F07EF9601CC4B2052CE8DB3B
:1007100010BD704710B5012000F006F8FFF7A4FFE8
:1007200008B101F08FFB10BD01490860704700005F
:100730001404014010B500241E21002001F062F9CC
:10074000012002F0FBF81E21002001F01BF901201E
:1007500002F0F4F81421012001F0E2F8012002F087
:10076000EDF81421012001F0A9F8012002F0E6F8CB
:100770001E21012001F006F9012002F0DFF81E2100
:10078000012001F03FF900BF54E01E21012001F0DB
:10079000F9F8012002F0D2F81E21012001F032F90F
:1007A000012002F0CBF81E21002001F087F8012083
:1007B00002F0C4F81E21002001F0B2F8012002F07E
:1007C000BDF81E21002001F01DF9012002F0B6F84D
:1007D0001E21002001F0D6F8012002F0AFF81E2102
:1007E000002001F00FF9012002F0A8F81E210020DE
:1007F00001F0C8F8012002F0A1F81E21012001F04B
:100800008FF8012002F09AF81E21012001F056F81D
:10081000012002F093F81E21012001F0B3F801201D
:1008200002F08CF81E21012001F0ECF8012002F00A
:1008300085F8641C052CA8DB1421002001F070F859
:10084000012002F07BF81421002001F037F801208C
:1008500002F074F810BD2DE9F04102460025002693
:10086000002000230024002791F803C00CF00F059E
:1008700091F803C00CF0100CBCF1000F03D091F8FC
:1008800002C04CEA050591F800C0BCF1000F31D060
:10089000146800202BE04FF0010C0CFA00F3B1F8C3
:1008A00000C00CEA03069E4220D183004FF00F0CDB
:1008B0000CFA03F7BC4305FA03FC4CEA040491F874
:1008C00003C0BCF1280F06D14FF0010C0CFA00FC5C
:1008D000C2F814C00AE091F803C0BCF1480F05D17A
:1008E0004FF0010C0CFA00FCC2F810C0401C0828A4
:1008F000D1D31460B1F800C0BCF1FF0F34DD5468EF
:1009000000202EE000F1080C4FF0010808FA0CF36B
:10091000B1F800C00CEA03069E4221D183004FF0DB
:100920000F0C0CFA03F7BC4305FA03FC4CEA040471
:1009300091F803C0BCF1280F05D100F1080C08FAAA
:100940000CF8C2F8148091F803C0BCF1480F07D12D
:1009500000F1080C4FF0010808FA0CF8C2F81080FA
:10096000401C0828CED35460BDE8F0814161704737
:100970000161704700BFFEE710B50121022002F0BF
:1009800069F84FF4FA7001F0D9FF00240FE000215C
:10099000042002F05FF8642001F0D0FF0121042060
:1009A00002F058F8642001F0C9FF601CC4B20A2CA0
:1009B000EDDB0021022002F04DF810BD10B501F072
:1009C00055FA01F08DFF4FF4A06000F067F84FF486
:1009D000E13002F02DF94FF4E13002F0D7F88C202D
:1009E0000C49087082200C49087096200B49087049
:1009F00082200B49087041F61F41312001F09AFA1C
:100A000001F02CF801F0E6F901F012FD00F050F8C9
:100A100010BD00001B0000201C0000201D00002055
:100A20001E00002000BFFEE77047000070B50021E7
:100A300000230F22C47804B3154C246804F4E06446
:100A4000C4F5E064210AC1F10403CA40447804FA01
:100A500003F184781440214309010E4C0678A15516
:100A6000047804F01F050124AC4005786D11AD0039
:100A700005F1E025C5F8004109E0047804F01F0500
:100A80000124AC40044D0678761145F8264070BD2F
:100A90000CED00E000E400E080E100E002490143E9
:100AA000024A1160704700000000FA050CED00E0FA
:100AB00010B500F013F800F0BFFB00F0E7FB00F00A
:100AC00007FC00F08FFB00F061FB00F09BFC00F0E6
:100AD0003FFC00F065FC00F002F810BD7047704765
:100AE00006480078012808D105480078FF2804D27C
:100AF00003480078401C02490870704776000020C7
:100B00006900002010B500241A480078012830D16F
:100B1000FFF780FB04461848007820B1164800789B
:100B2000401E1549087014480078F8B91348007839
:100B3000E0B900F0C9FC12481249097850F82100C8
:100B4000114908600F4800781049097888420DD093
:100B50000D480068806B401C0B49096888630C488D
:100B60000068401C0A490860FFF773FB2046FFF746
:100B700055FB10BD76000020690000206A000020AF
:100B8000C00800206C000020840000206B000020C2
:100B90005000002010B500240B480078012811D126
:100BA000FFF738FB04460948007840B90848007848
:100BB000FF2804D206480078401C054908702046EA
:100BC000FFF72CFB10BD000076000020690000201C
:100BD0006A00002010B5002413480078012821D1B4
:100BE000FFF718FB044611480078C0B10F480078A1
:100BF000401E0E4908700846007860B90C4800781D
:100C000028B92046FFF70AFB00F024FC0AE0204642
:100C1000FFF704FB06E02046FFF700FB02E020465A
:100C2000FFF7FCFA10BD0000760000206A000020EB
:100C30006900002010B50B48007890B900F044FC22
:100C4000094800780949087009480749097850F8A7
:100C50002100084908600846006807490860FFF756
:100C6000E0FA10BD760000206C0000206B00002030
:100C7000C0080020840000207C0000207047000095
:100C80002DE9FE4F06460F4690461C464FF00009E0
:100C9000FFF7C0FA81461F48007828B14846FFF7A1
:100CA000BDFA3C20BDE8FE8F1B4850F8240060BB15
:100CB0000120194941F824004846FFF7AFFA002304
:100CC00042463946304600F009F98246002000903D
:100CD00001900346024651460290204600F00AFC6D
:100CE000054635B90D48007801280CD100F0B2FB5B
:100CF00009E0FFF78FFA81460020074941F82400F8
:100D00004846FFF78BFA2846CCE74846FFF786FAB5
:100D10002820C7E769000020C008002076000020D6
:100D20002DE9F04F85B081468A4693461C46DDE9A1
:100D30000F78129D00200390FFF76CFA0390234870
:100D4000007830B10398FFF769FA3C2005B0BDE8A0
:100D5000F08F1F4850F8240088BB01201C4941F83F
:100D600024000398FFF75AFA2A464146384600F015
:100D7000D1FC2B465A465146484600F0AFF8049045
:100D80001198CDE9008002953A4620460E9B0499C1
:100D900000F0B0FB064636B90E48007801280CD1A9
:100DA00000F058FB09E0FFF735FA039000200849EE
:100DB00041F824000398FFF731FA3046C6E7FFE711
:100DC0000398FFF72BFA2820C0E7000069000020F5
:100DD000C008002076000020704770472DE9F041E0
:100DE00006460F4614464FF000081548007818B123
:100DF00012202070BDE8F081FFF70CFA8046FF2E2C
:100E000003D11048006890F832600F4850F826501F
:100E10002DB94046FFF702FA43202070EAE7012D82
:100E200005D14046FFF7FAF943202070E2E7EF646E
:100E30004046FFF7F3F90020207000BFDAE700001A
:100E4000690000207C000020C008002070470000DE
:100E50002DE9F04707460D464FF0000A00202860B4
:100E60006860FFF7D7F98246FF2F03D11948006861
:100E700090F83270184850F827402CB95046FFF7C8
:100E8000CDF94320BDE8F087012C04D15046FFF78F
:100E9000C5F94320F6E7207C00F0010020B9504658
:100EA000FFF7BCF94520EDE70026D4F80C90D4F804
:100EB00008805046FFF7B2F900E0761C58F8041B92
:100EC0000029FAD0B0002860A9EB06008000686015
:100ED0000020D7E77C000020C008002070B5044641
:100EE00010464FF080750560051F28462C606FF096
:100EF0000106051F28462E604FF01236051F2846B2
:100F00002E604FF00336051F28462E604FF0023644
:100F1000051F28462E607610051F28462E60051FE7
:100F2000284629604FF01136051F28462E604FF0E5
:100F30001036051F28462E604FF00936051F28463B
:100F40002E604FF00836051F28462E604FF00736FA
:100F5000051F28462E604FF00636051F28462E60D6
:100F60004FF00536051F28462E604FF00436051F4A
:100F700028462E6070BD00002DE9F04105464FF077
:100F80000008FFF747F98046FF2D05D1204800688B
:100F900090F83250012608E01D48006890F83200B1
:100FA000A84201D1012600E000261A4850F8254049
:100FB0002CB94046FFF732F94820BDE8F081012CFA
:100FC00004D14046FFF72AF94320F6E794F834703D
:100FD0001148C05D94F8351088430F49C85508463C
:100FE000C05D30B994F836100C48007888430B493E
:100FF000087094F8300040F0080084F83000404653
:10100000FFF70CF9012E01D100F024FA0020D4E7FB
:101010007C000020C00800206E0000206D00002031
:101020007047000070B5054600261748007800B1EB
:1010300070BD1648007800B1FAE71DB3FFF7EAF873
:1010400006461348006890F834401248005D104985
:10105000096891F8351088430E4908550846005D27
:1010600040B90B48006890F836100B480078884368
:101070000949087006480068C5623046FFF7CEF897
:1010800000F0E8F900BFD3E7690000206A00002003
:101090007C0000206E0000206D00002070B500264E
:1010A00000F072F8FFF7B6F8064631480068401CB9
:1010B0002F4908603046FFF7B1F82E480078012824
:1010C00053D12D48007820B1012804D0022809D13D
:1010D00003E001250BE0002509E001250120264958
:1010E000087004E0012500202349087000BF00BFFC
:1010F00005B970BD2148046833E0FFF78BF8064658
:10110000E06A50B3E06A401EE062E06A28BB94F8EF
:10111000300000F0370040B114F8300F00F0C80084
:10112000207001206070303C02E0002084F8310023
:1011300094F8300000F0080078B93434A0781049F1
:10114000097808430E49087020780E49085C6178D8
:10115000084314F834190B4A505464693046FFF7B9
:101160005DF894F832003F28C7D100BFC1E7000006
:1011700094000020760000208C00002088000020D1
:101180006D0000206E000020704700002DE9F04146
:101190005021114800F02CF900250DE0681C86B2A2
:1011A0000D4800EB051400EB061700202070676067
:1011B0000AA0E060681C85B2042DEFD3064800EB5E
:1011C000051400202070606004A0E060024804491B
:1011D0000860BDE8F0810000700400203F000000BE
:1011E0005800002070B5C821114800F001F9002313
:1011F0000FE0581C85B203EB83000D4901EB80041E
:1012000005EB850001EB8006002020706660581C0D
:1012100083B2092BEDD303EB8300054901EB800476
:1012200000202070606008460249086070BD000020
:10123000A80300205400002000200A4908600A4941
:1012400008700A4908700A4908700A4908700A4972
:1012500008600A4908600A4908600A4908600A49A2
:101260000870704794000020690000206A00002088
:101270007700002076000020500000207800002039
:1012800064000020600000206800002000210A4A5D
:101290001170002004E00021084A1154411CC8B21A
:1012A0000828F8D30021064A1170064A1170064A30
:1012B0001160064A116070476D0000206E0000202A
:1012C0006B0000206C000020840000207C000020C7
:1012D00070B54FF47C71194800F08AF84FF48071B2
:1012E000174800F085F8002413E0601CC5B2C4EB79
:1012F000C40000EB4000114901EB8003C5EBC500C1
:1013000000EB400001EB80065E610EA0D864601C1B
:10131000C4B20B2CE9D3C4EBC40000EB4000074976
:1013200001EB80030020586106A0D8640020064924
:10133000086002480549086070BD0000C00900202F
:10134000C00800203F00000088000020800000202E
:1013500000B587B00320002180220A4BCDE901327D
:10136000CDE903104FF6FF703F23074A009007486E
:10137000FFF7D6FC06AA06A13F20FFF72FFD07B016
:1013800000BD0000C0060020BC080020291600088F
:1013900075432F4F532D49492049646C6500000067
:1013A00000B587B00320002180220A4BCDE901322D
:1013B000CDE903104FF6FE703E23074A0090074820
:1013C000FFF7AEFC06AA06A13E20FFF707FD07B017
:1013D00000BD0000C0040020BC060020511600081B
:1013E00075432F4F532D49492053746174000000F9
:1013F00004E0002200F8012B4A1E91B20029F8D126
:10140000704700002DE9F04178211048FFF7F0FF08
:1014100000240DE0601C86B204EB44000B4901EB94
:10142000C00506EB460001EBC0072F60601C84B2CC
:10143000042CEFD304EB4400044901EBC005002069
:101440002860084602490860BDE8F081B00D002020
:101450009000002010B50024FEF7DCFE044613487F
:101460000078F8B912480078E0B900F02DF811487A
:101470001149097850F82100104908600E48007899
:101480000F49097888420DD00C480068806B401CD9
:101490000A49096888630B480068401C09490860CC
:1014A000FEF7D0FE2046FEF7B9FE10BD6900002011
:1014B0006A000020C00800206C000020840000208A
:1014C0006B000020500000200649074A1278885C13
:1014D0000649095C034A515C01EBC001044A1170E2
:1014E00070470000D02C00086D0000206E00002026
:1014F0006C0000202DE9F84F05460F4690469946AE
:10150000DDE90AAB00200090FEF784FE00903F4822
:101510000468002C74D0183454F8040C3B4908605B
:101520000098FEF77BFE44F8187CA5760020207614
:101530006076606144F814BC44F80CAC44F8108C3C
:101540000C9824F8080C24F8069C0020E077E8109A
:10155000207705F00700E076217F01208840A07702
:10156000E17E01208840607700206060E060A0603C
:101570002062A0626062E062206325A06063183C84
:10158000002606E0002104F1500040F82610701CEF
:10159000C6B2002EF6D02046FFF770FB2046FFF7BC
:1015A0001BFCFEF737FE00901A4840F825401A4809
:1015B000006860610020A0611748006810B11648FB
:1015C00000688461144804603434A07813490978B1
:1015D00008431249087020781149085C6178084373
:1015E00014F834190E4A50540E480078401C0D4926
:1015F00008700098FEF712FE0020BDE8F88FFFE7A4
:101600000098FEF70BFE4220F7E700008000002064
:101610003F000000C0080020880000206D0000206E
:101620006E00002077000020002400BF00BFFEF7FE
:10163000F1FD044605480068401C04490860204646
:10164000FEF7ECFDFFF7C9FBF1E700007800002092
:10165000002400BF02E02820FFF7E4FC19480078CE
:101660000028F8D0184800686421B0FBF1F0164952
:1016700008600846006828B9002014490870FF2057
:10168000FFF77AFC00BFFEF7C5FD0446104800686E
:101690001049086000200E4908602046FEF7BEFD94
:1016A0000C48006808490968B0FBF1F0C0F164001B
:1016B00006490870FFF7CAFB00F00EF81420FFF788
:1016C000B1FCE0E768000020600000205C00002022
:1016D00078000020640000207CB5002514E06946F5
:1016E0002846FFF7B5FB064666B9094850F825407D
:1016F00044B1012C06D0D4E9020100EB8100606402
:101700000198A064681CC5B23F2DE8D97CBD0000DB
:10171000C008002002F0010343B102F002032BB124
:1017200002E0491E002308C00029FAD170470000DA
:101730000A48006840F0040008490860084600684C
:1017400040F0020008600648006840F004000449C8
:10175000086000BF00BF30BF70470000007000404D
:1017600010ED00E00149086070470000A0000E4243
:1017700029B1064AD2690243044BDA6104E0034A04
:10178000D2698243014BDA617047000000100240C9
:1017900029B1064A92690243044B9A6104E0034A64
:1017A00092698243014B9A61704700000010024029
:1017B00029B1064AD2680243044BDA6004E0034AC6
:1017C000D2688243014BDA6070470000001002408B
:1017D00030B500210022002400232D4D6D6805F056
:1017E0000C0121B1042905D0082923D105E0294D98
:1017F000056022E0274D05601FE0254D6D6805F46A
:101800007012234D6D6805F48034022505EB924279
:101810001CB9214D554305600BE01D4D6D6805F465
:1018200000351DB11C4D5543056002E0194D55436F
:10183000056002E0174D056000BF00BF144D6D68E4
:1018400005F0F0010909154D6B5C0568DD40456048
:101850000F4D6D6805F4E061090A104D6B5C456839
:10186000DD4085600A4D6D6805F46051C90A0B4D75
:101870006B5C4568DD40C560054D6D6805F4404111
:10188000890B074D6B5CC568B5FBF3F5056130BD91
:101890000010024000127A0000093D003A000020CA
:1018A0004A0000207047000010B50446A1B202486B
:1018B00000F003FD10BD00000004004070B50446B8
:1018C0000D4600200F49087017E02CB90E4800782B
:1018D000401C0D49087004E00B480078401E0A497E
:1018E000087009480078FFF7DFFF072001F026F8AD
:1018F00004480078401C0349087002480078A84258
:10190000E3DB70BD180000201B00002010B504466A
:10191000A1B2024800F0D3FC10BD0000000400405A
:1019200070B504460D4600200F49087017E02CB929
:101930000E480078401C0D49087004E00B48007800
:10194000401E0A49087009480078FFF7DFFF0720AA
:1019500000F0F4FF04480078401C03490870024876
:101960000078A842E3DB70BD180000201C000020B6
:1019700010B50446A1B2024800F0A3FC10BD00005F
:101980000004004070B504460D460020124908705E
:1019900018E02CB911480078401E1049087004E086
:1019A0000E480078401C0D4908700C480078FFF77D
:1019B000DFFF0B48007800F0C1FF07480078401CAB
:1019C0000549087004480078A842E2DB0348017822
:1019D00004A0FEF77BFC70BD180000201D00002055
:1019E0001A0000206265617574793A256400000070
:1019F00010B50446A1B2024800F065FC10BD00001D
:101A00000004004070B504460D46002010490870DF
:101A100018E02CB90F480078401E0E49087004E009
:101A20000C480078401C0B4908700A480078FFF702
:101A3000DFFF0948007800F081FF05480078401C6E
:101A40000349087002480078A842E2DB70BD00003C
:101A5000180000201E0000201A00002000B589B0E8
:101A600001210220FFF784FE01210C20FFF790FEE8
:101A7000C020ADF820001C208DF8230003208DF835
:101A8000220008A93648FEF7E6FE0320ADF8200044
:101A90001C208DF8230003208DF8220008A931486E
:101AA000FEF7D9FE40F2CF70ADF8180040F2CF201B
:101AB000ADF814000020ADF81A00ADF8160005A925
:101AC000294800F003FC6020ADF804000120ADF8C7
:101AD000060026480078ADF80A000020ADF80C009A
:101AE00001A9214800F098FA0120ADF8060020482D
:101AF0000078ADF80A0001A91B4800F0D9FA0821C6
:101B0000194800F027FB0120ADF8060019480078BD
:101B1000ADF80A0001A9144800F02AFB0821124878
:101B200000F076FB0120ADF8060013480078ADF810
:101B30000A0001A90C4800F075FB08210A4800F0D2
:101B4000AFFB0121084800F03EFA0121064800F0F1
:101B50001FFA0121044800F02AFA09B000BD000074
:101B600000080140000C0140000400401B00002060
:101B70001C0000201D0000201E00002010B504469F
:101B800004F0010020B120211748FEF7F1FE03E028
:101B900020211548FEF7EAFE04F0020020B14021A2
:101BA0001148FEF7E5FE03E040210F48FEF7DEFE98
:101BB00004F0040020B180210B48FEF7D9FE03E0B9
:101BC00080210948FEF7D2FE04F0080028B14FF446
:101BD00080710548FEF7CCFE04E04FF480710248A6
:101BE000FEF7C4FE10BD0000000C014010B500F06F
:101BF00001F810BD0CB5002001900090334800683A
:101C000040F480303149086000BF3048006800F47B
:101C1000003000900198401C0190009818B901987C
:101C2000B0F5A06FF1D12948006800F4003010B180
:101C30000120009001E0002000900098012843D18D
:101C40002348006840F010002149086008460068F9
:101C500020F0030008600846006840F002000860B9
:101C60001A48406819494860084640684860084674
:101C7000406840F4806048600846406820F47C106A
:101C800048600846406840F4E8104860084600682C
:101C900040F08070086000BF0C48006800F00070E1
:101CA0000028F9D00948406820F00300074948603F
:101CB0000846406840F00200486000BF03484068A2
:101CC00000F00C000828F9D10CBD00000010024003
:101CD0000020024010B5002414210020FFF792FEDE
:101CE000012000F02BFE14210020FFF74BFE012005
:101CF00000F024FE14210020FFF7E0FD012000F099
:101D00001DFE00BF0FE028210120FFF7D7FD0120B5
:101D100000F014FE28210020FFF7D0FD012000F084
:101D20000DFE601CC4B20A2CEDDB14210120FFF76C
:101D3000C5FD012000F002FE14210120FFF762FE24
:101D4000012000F0FBFD14210120FFF71BFE4FF4E2
:101D5000FA6000F0F3FD14210120FFF713FE0120CB
:101D600000F0ECFD14210120FFF74CFE012000F0F3
:101D7000E5FD14210020FFF7D3FD012000F0DEFD7A
:101D800000240FE028210120FFF7CAFD012000F008
:101D9000D5FD28210020FFF7C3FD012000F0CEFD76
:101DA000601CC4B20A2CEDDB14210120FFF7B8FD42
:101DB000012000F0C3FD14210020FFF723FE0120C5
:101DC00000F0BCFD14210020FFF7DCFD012000F035
:101DD000B5FD10BD08B501210820FFF7D9FC102082
:101DE0008DF8030003208DF8020047F2E010ADF8F3
:101DF000000069460148FEF72EFD08BD000C0140B9
:101E0000042808D14FF0E021096941F004014FF0A6
:101E1000E022116107E04FF0E021096921F004019F
:101E20004FF0E0221161704710B505480078012895
:101E300005D1FEF755FEFFF731F9FEF763FE10BD41
:101E40007600002010B500214FF4FE70FFF7B0FCC3
:101E500000F001F810BD10B501210807FFF788FC5C
:101E60000120FFF77FFCFFF763FC10BD10B513489E
:101E7000006840F0010011490860084640681049B8
:101E800008400E494860084600680E4908400B4962
:101E900008600846006820F4802008600846406812
:101EA00020F4FE0048604FF41F008860FFF79EFE9C
:101EB0004FF000600449086010BD000000100240AF
:101EC0000000FFF8FFFFF6FE08ED00E010B501216D
:101ED000880700F087F801281FD112480078E0B188
:101EE000104800781049097888420FD10F480078CF
:101EF000401C0E4908700846007804280DDB0120BC
:101F00000B49087000200949087006E000200749C5
:101F1000087004480078044908700121880700F01F
:101F200043F810BD3900002001000020020000200D
:101F3000000000207FB505460C4601210846FFF74A
:101F400017FCADF80850ADF804400020ADF80600CD
:101F5000ADF80A0001A94FF0804000F0B7F9012266
:101F60001146900700F04FF80121880700F01FF894
:101F70001C208DF8000001208DF8010003208DF851
:101F8000020001208DF803006846FEF74FFD7FBD7B
:101F900021B1028842F08002028004E002884FF6FC
:101FA0007F731A4002807047CA430282704721B192
:101FB000028842F00102028004E002884FF6FE73BC
:101FC0001A400280704731B1B0F8442042F4004218
:101FD000A0F8442005E0B0F84420C2F30E02A0F8B7
:101FE0004420704730B50246002000230024158AA3
:101FF00005EA0103958905EA010413B10CB101203A
:1020000000E0002030BD1AB183890B43838102E0D8
:1020100083898B438381704770B50024002200239D
:10202000058C4FF6FE7635400584028C8388048B40
:102030004FF68F752C40B51E2C400D882C43751E15
:102040002A400D892A434D882A43144DA8420BD0BB
:10205000134DA84208D0134DA84205D0124DA842F6
:1020600002D0124DA84213D14FF6F7752A404D8980
:102070002A434FF6FB752A408D882A434FF6FF65A9
:102080002B404FF6FF552B408D892B43CD892B4399
:1020900083800483CD888586028470BD002C014036
:1020A000003401400040014000440140004801402C
:1020B00070B5002400220023058C4FF6EF763540E2
:1020C0000584028C8388048B48F6FF752C404FF6FC
:1020D000FF452C400D884FF6FF7606EA05252C4378
:1020E0004FF6DF752A400D8906EA05152A434D880B
:1020F00006EA05152A43154DA84202D0144DA84200
:102100001DD14FF67F752A404D894FF6FF7606EABE
:1021100005152A434FF6BF752A408D8806EA051536
:102120002A434FF6FF352B404FF2FF752B408D8928
:1021300006EA85052B43CD8906EA85052B43838076
:102140000483CD880587028470BD0000002C014007
:10215000003401400A460021018B4FF2FF73194001
:102160004FF6FF7303EA022319430183704700000F
:1021700070B5002400220023058C4FF6FF66354021
:102180000584028C8388848B4FF68F752C404FF624
:10219000FC752C400D882C434FF6FF552A400D89C5
:1021A0004FF6FF7606EA05252A434D8806EA0525FF
:1021B0002A43154DA84202D0144DA8421DD14FF21A
:1021C000FF752A404D894FF6FF7606EA05252A431A
:1021D0004FF6FF352A408D8806EA05252A434EF63C
:1021E000FF752B404DF6FF752B408D8906EA0515CE
:1021F0002B43CD8906EA05152B4383808483CD8844
:102200008587028470BD0000002C0140003401402D
:102210000A460021818B4FF6F773194011438183E1
:102220007047000070B5002200230024058C4EF694
:10223000FF7635400584038C8488828B48F6FF75D1
:102240002A404FF6FF452A400D884FF6FF7606EAF2
:1022500005252A434DF6FF752B400D8906EA053505
:102260002B434D8806EA05352B430B4DA84202D07F
:102270000A4DA84208D14BF6FF752C408D894FF6C8
:10228000FF7606EA85152C4384808283CD88A0F8EA
:102290004050038470BD0000002C01400034014018
:1022A0000A460021818B4FF2FF7319404FF6FF73EE
:1022B00003EA0223194381837047818670470187AF
:1022C000704781877047A0F840107047002202884D
:1022D0001D4B98420ED01D4B98420BD0B0F1804F51
:1022E00008D01B4B984205D01A4B984202D01A4B8B
:1022F000984204D14FF68F731A404B881A43174BFC
:10230000984207D0164B984204D04FF6FF431A402C
:10231000CB881A4302808B8883850B8803850A4B00
:1023200098420BD0094B984208D00E4B984205D0EA
:102330000D4B984202D00D4B984201D10B7A038687
:102340000123838270470000002C014000340140CB
:102350000004004000080040000C00400010004055
:10236000001400400040014000440140004801408A
:1023700070B504464FF480411648FEF7F7FA002581
:102380001AE04FF400511348FEF7F0FA04F0010090
:1023900028B14FF480510F48FEF7EAFA04E04FF4F9
:1023A00080510C48FEF7E2FA4FF400510948FEF75D
:1023B000DFFA6410681CC5B2082DE2DB4FF400514F
:1023C0000448FEF7D3FA4FF480510248FEF7CEFAE4
:1023D00070BD0000000C014070B5C826002521E04A
:1023E0004FF480411148FEF7C1FA6900C031C8B20C
:1023F000FFF7BEFF002409E00121A140C8B2FFF7AA
:10240000B7FF304600F09AFA601CC4B2092CF3DB27
:102410004FF480410548FEF7ABFA142000F08EFA25
:10242000681CC5B2082DDBDB70BD0000000C01404C
:1024300010B54FF400510E48FEF79AFA4FF4804160
:102440000B48FEF795FA4FF480510948FEF790FAD1
:10245000892000F02DFA402000F02AFAFEF724F936
:10246000442000F025FA642000F068FA10BD000056
:10247000000C014010B5002400BF44E01E210020E4
:10248000FFF7C0FA012000F059FA1E210020FFF7E3
:1024900079FA012000F052FA14210020FFF70EFA19
:1024A000012000F04BFA1E210120FFF76BFA0120FA
:1024B00000F044FA1E210120FFF7A4FA1E2101209A
:1024C000FFF760FA012000F039FA1E210120FFF722
:1024D00099FA012000F032FA14210120FFF7EEF9F9
:1024E000012000F02BFA1E210020FFF78BFA0120BB
:1024F00000F024FA1E210020FFF744FA012000F02A
:102500001DFA601CC4B2032CB8DB10BD10B500244A
:1025100000BF44E01E210120FFF734FA012000F043
:102520000DFA1E210120FFF76DFA012000F006FAD6
:1025300014210120FFF7F4F9012000F0FFF91E211A
:102540000020FFF75FFA012000F0F8F91E210020BB
:10255000FFF718FA1E210020FFF754FA012000F0BF
:10256000EDF91E210020FFF70DFA012000F0E6F939
:1025700014210020FFF7D4F9012000F0DFF91E211B
:102580000120FFF7FFF9012000F0D8F91E210120FA
:10259000FFF738FA012000F0D1F9601CC4B2032C17
:1025A000B8DB10BD10B540F22551084800F032F8F4
:1025B00050B1064800F0EAF8C4B2204600F064F9D1
:1025C0002021024800F004F810BD00000044004043
:1025D00001F40072B2F5007F00D100BFCA4302804F
:1025E000704721B1828942F40052828104E08289DD
:1025F0004DF6FF731A408281704702460020B1F504
:10260000007F00D100BF13880B400BB1012000E018
:102610000020704770B502460024002300250020EA
:1026200040F66A16B14200D100BFC1F3421501F075
:102630001F03012606FA03F3012D02D196893340C8
:1026400006E0022D02D1168A334001E0968A33401B
:102650000C12012606FA04F41688344013B10CB1AA
:10266000012000E0002070BDF0B5034600240026E4
:102670000025002040F66A17B94200D100BF184675
:10268000C1F3421401F01F06012707FA06F5012CD9
:1026900001D10C3004E0022C01D1103000E01430E4
:1026A0001AB107682F43076002E00768AF4307606D
:1026B000F0BD00002DE9F04786B005460E46002427
:1026C000A24600BFA1460027B08900B100BF2F4637
:1026D0002C8A4CF6FF700440F08804432C82AC89AD
:1026E0004EF6F3100440B0883189084371890843DD
:1026F0000443AC81AC8A4FF6FF400440B0890443E8
:10270000AC8201A8FFF764F81F48874202D1DDF8C8
:1027100010A001E0DDF80CA0A88900F4004040B151
:102720000AEBCA0000EB0A1031684900B0FBF1F86F
:1027300007E00AEBCA0000EB0A1031688900B0FB21
:10274000F1F86420B8FBF0F004012009642101FBDA
:102750001089A88900F4004040B1322000EBC90084
:10276000B0FBF1F000F00700044308E0322000EB7A
:1027700009106421B0FBF1F000F00F0004432C813C
:1027800006B0BDE8F08700000038014001468888A7
:10279000C0F308007047C1F308028280704700BF91
:1027A000FEE7000000B5062224A1264800F0DCF96F
:1027B00018B90120244908703EE0082223A12148CD
:1027C00000F0D2F918B902201F49087034E0052240
:1027D00021A11C4800F0C8F918B903201A49087053
:1027E0002AE008221FA1174800F0BEF918B90420FA
:1027F0001549087020E005221DA1124800F0B4F927
:1028000018B905201049087016E005221AA10D48D4
:1028100000F0AAF918B906200B4908700CE0042250
:1028200017A1084800F0A0F918B907200649087058
:1028300002E000200449087000BD0000466F727776
:102840006172640098030020030000204261636B02
:1028500077617264000000005475726E5269676897
:10286000740000005475726E4C65667400000000C0
:1028700044616E63650000005368616B6500000091
:1028800048656164000000000749084A12788854CE
:1028900006490978491C054A1170114609780F2923
:1028A00001DB0021117070479803002039000020DF
:1028B00010B504464FF480410748FEF757F820460C
:1028C000FFF756FD4FF480410348FEF751F8022010
:1028D00000F034F810BD0000000C014000BF70474C
:1028E00010B56FF00400FFF78BFA1048006810492C
:1028F000B0FBF1F00F4908700C4800680C49B0FBC0
:10290000F1F441F28830444305200B4908804FF030
:10291000E020006940F002004FF0E0210861084625
:102920004461006940F00100086110BD040000200E
:1029300000127A00300000203200002070B50446FA
:102940000F480078A0B10F48007888B90E48008879
:10295000844206DB0C48008894FBF0F5284600F022
:102960001DF80948008894FBF0F100FB114084B287
:102970004FF47A7104FB01F000F016F870BD00000E
:1029800076000020690000203200002010B5FEF71C
:1029900001F910BD10B5FEF71DF910BD10B50446C4
:1029A0002046FEF73FFB10BD2DE9F0470746002605
:1029B0004FF0E020D0F814901148007807FB00F8A1
:1029C00000BFFFF7E3FF4FF0E020856911E04FF013
:1029D000E0208469AC420CD0AC4202D2281B0644F1
:1029E00003E0A9EB0400284406442546464500D3ED
:1029F00000E0ECE700BFFFF7CDFFBDE8F087000087
:102A00003000002070B504460D46E1B20548FFF7DE
:102A1000C2FE00BF40210348FFF7EFFD0128F9D1B6
:102A2000204670BD0038014001E0FFF7D5FCFCE70F
:102A300010B5FDF7C3FF0A23044A00210448FEF73E
:102A40001FF9FEF7F7F8002010BD000094010020E8
:102A5000252B00082DE9F04105460E460024A0462E
:102A600019E0002713E000240EE0012E04D10C49E8
:102A7000085DFFF783F803E00A49085DFFF77EF879
:102A80000220FFF75BFF641C082CEEDB7F1C082F85
:102A9000E9DB08F10108A845E3DBBDE8F0810000AF
:102AA0001F0000202700002010B5124800780828D9
:102AB0001AD2DFE800F01904070A0D101316FDF70B
:102AC00039FE15E0FDF73CFD12E0FFF71FFD0FE0BA
:102AD000FFF7D0FC0CE0FDF701FE09E0FFF7FAF884
:102AE00006E0FDF749FF03E000200249087000BF3F
:102AF00000BF10BD030000200EE008480078012848
:102B00000AD100200549087005490870FFF74AFE00
:102B1000FFF7CAFFFDF7BCFDEFE700000000002053
:102B20003900002070B50446002500BFFDF772FB98
:102B300005460723084A00210848FEF7A1F80623A6
:102B4000074A00210748FEF79BF80A20FEF714FA0F
:102B50002846FDF763FB70BD94020020F92A0008A7
:102B600094030020292A000830B50346002406E01B
:102B7000641C944201D1002030BD5B1C491C1878B4
:102B80000D78A842F4D04FF0FF30F5E710B586B0CD
:102B9000044601210420FEF7FBFD01214804FEF755
:102BA000E7FD0420ADF8140003208DF8160018206E
:102BB0008DF8170005A91C48FDF74DFE0820ADF85B
:102BC000140004208DF8170005A91748FDF743FEEF
:102BD00026208DF8000003208DF8010002208DF8DA
:102BE000020001208DF803006846FDF71FFF0194E5
:102BF0000020ADF80800ADF80A00ADF80C00ADF803
:102C000010000C20ADF80E0001A90848FFF752FD96
:102C1000012240F225510548FFF726FD0121034816
:102C2000FFF7DFFC06B010BD000801400044004083
:102C300010B586B00446012144F20400FEF7A8FD59
:102C40004FF40070ADF8140003208DF81600182022
:102C50008DF8170005A91C48FDF7FDFD4FF48060B5
:102C6000ADF8140004208DF8170005A91648FDF7EB
:102C7000F2FD25208DF8000003208DF801008DF86D
:102C8000020001208DF803006846FDF7CFFE019495
:102C90000020ADF80800ADF80A00ADF80C00ADF862
:102CA00010000C20ADF80E0001A90848FFF702FD46
:102CB000002240F225510548FFF7D6FC01210348C8
:102CC000FFF78FFC06B010BD00080140003801403E
:102CD00000000100020001000300010002000100E9
:102CE00004000100020001000300010002000100D5
:102CF00005000100020001000300010002000100C4
:102D000004000100020001000300010002000100B4
:102D100006000100020001000300010002000100A2
:102D20000400010002000100030001000200010094
:102D30000500010002000100030001000200010083
:102D40000400010002000100030001000200010074
:102D50000700010002000100030001000200010061
:102D60000400010002000100030001000200010054
:102D70000500010002000100030001000200010043
:102D80000400010002000100030001000200010034
:102D90000600010002000100030001000200010022
:102DA0000400010002000100030001000200010014
:102DB0000500010002000100030001000200010003
:102DC00004000100020001000300010002000100F4
:102DD000F02D000800000020980000006C010008A1
:102DE000882E000898000020F013000088010008D9
:102DF0000000000000A24A040000000000000000E3
:102E0000010203040607080900C80A0000000008C0
:102E10000C0406020301090901030206040C080060
:102E2000000000000000000000000000000001029F
:102E3000030401020304060708090204060800004F
:102E40000000000000000000000000000000000082
:102E50000000000000000000000000000000000072
:102E60000000000000000000000000000000000062
:102E70000000000000000000000000000000000052
:082E800000000000000000004A
:04000005080001D519
:00000001FF
