:020000040800F2
:100000009010002091010008E10900082D09000866
:10001000DD09000813060008FB27000800000000A7
:1000200000000000000000000000000009190008A6
:10003000CB06000800000000130200088D1E000817
:10004000A7010008A7010008A7010008A7010008F0
:10005000A7010008A7010008CD060008A7010008B5
:10006000A7010008A7010008A7010008A7010008D0
:10007000A7010008A7010008A7010008A7010008C0
:10008000A7010008A7010008A7010008A7010008B0
:10009000A7010008A7010008A7010008A7010008A0
:1000A000A7010008A7010008A7010008A701000890
:1000B000311F0008A7010008A7010008A7010008D8
:1000C000A7010008A7010008A7010008A701000870
:1000D000A7010008A701000801260008A7010008E1
:1000E000A7010008A7010008A701000800F002F816
:1000F00000F03FF80AA090E8000C82448344AAF183
:100100000107DA4501D100F034F8AFF2090EBAE880
:100110000F0013F0010F18BFFB1A43F0010318473B
:10012000502D0000702D0000103A24BF78C878C10F
:10013000FAD8520724BF30C830C144BF04680C60ED
:10014000704700000023002400250026103A28BF35
:1001500078C1FBD8520728BF30C148BF0B60704739
:10016000642900F0CB80002070471FB51FBD10B57B
:1001700010BD00F08BF91146FFF7F7FF02F0A2FC6B
:1001800000F0A9F903B4FFF7F2FF03BC02F0F0FBA3
:1001900008480047FEE7FEE7FEE7FEE7FEE7FEE76A
:1001A000FEE7FEE7FEE7FEE703480449024A044B88
:1001B00070470000ED000008900E00209010002015
:1001C000900E0020EFF3108072B6704780F3108815
:1001D0007047204C204D25604FF0000484F30988BF
:1001E0001E4C4FF0010525701D4C4FF080552560C9
:1001F00062B6FEE730B41A4C4FF08055256030BC33
:10020000704730B4164C4FF08055256030BC7047B5
:1002100000BF72B6EFF3098028B1203880E8F00FF4
:1002200010490968086000B50F4880475DF804EB85
:100230000E480F490A7802700A480E490A6802609F
:10024000106890E8F00F203080F309884EF0040E1B
:1002500062B6704720ED00E00000FFFF7A0000204A
:1002600004ED00E080000020851000086F000020F1
:100270007000002088000020704700000FB404497F
:1002800010B503AA029800F0D3F810BC5DF814FB77
:10029000380000202DE9F0410E460446002020627F
:1002A0002046E168884730B3252805D0D4E90121EC
:1002B0009047206A401CF2E7E16820460027884703
:1002C000050018D0A5F14100192802D820354FF4B7
:1002D00000673246294620462760FFF741FF40B1BC
:1002E000012804D0F61D26F007060836D8E7361D8B
:1002F000D6E72846DAE7206ABDE8F0812DE9F0412B
:100300000646002410687529314616A510D0AFF3B3
:100310000080002802DA404213A507E031688A070E
:1003200001D512A502E0490704D511A5012401E079
:10033000AFF3008000210A2206F1240709E0B0FB98
:10034000F2FCB0FBF2F302FB1C003030785418468C
:10035000491C0028F3D123462A463046BDE8F04127
:1003600000F00CB8000000002D0000002B00000081
:100370002000000070477047704770472DE9F04734
:100380000D4699469246044600F124080168880605
:1003900004D5E06921F01001216000E00120A842AD
:1003A00001DD471B00E00027A1697A1902EB090073
:1003B000081AA0612078C00602D42046AFF300805E
:1003C000002608E0D4E901211AF806009047206AC7
:1003D000401C761C20624E45F4DB2078C0060AD50E
:1003E0002046AFF3008006E0D4E901213020904799
:1003F000206A401C2062381EA7F10107F4DC07E0E8
:10040000D4E9012118F805009047206A401C2062B9
:10041000281EA5F10105F3DC2046AFF3008020780B
:10042000000602D50220BDE8F0870120FBE70000AE
:10043000074B70B50D467B4400F011F80446284682
:1004400000F020F810B14FF0FF3070BD204670BDB5
:100450005F26000001694A1C02610878704700B5F8
:100460008FB0CDE901310021059105497944CDE9ED
:10047000031011466846FFF70DFF0FB000BD0000E6
:10048000E5FFFFFF007B00F080007047754600F03D
:100490002BF8AE4605006946534620F00700854616
:1004A00018B020B5FFF780FEBDE820404FF00006F1
:1004B0004FF000074FF000084FF0000B21F007014C
:1004C000AC46ACE8C009ACE8C009ACE8C009ACE88F
:1004D000C0098D46704710B50446AFF30080204632
:1004E000BDE81040FFF74EBE004870472C0E0020BC
:1004F00010B500241E21012001F076FA012002F03F
:1005000067FA1E21012001F0AFFA012002F060FA23
:100510001421012001F004FA012002F059FA1421FB
:10052000012001F02FFA012002F052FA1E210020D2
:1005300001F09AFA012002F04BFA1E21002001F08E
:1005400053FA00BF54E01E21002001F08DFA012073
:1005500002F03EFA1E21002001F046FA012002F0CE
:1005600037FA1E21002001F00DFA012002F030FAC6
:100570001E21002001F0D4F9012002F029FA1E21E9
:10058000012001F031FA012002F022FA1E2101209F
:1005900001F06AFA012002F01BFA1E21012001F08D
:1005A00023FA012002F014FA1E21012001F05CFA66
:1005B000012002F00DFA1E21012001F0B1F9012005
:1005C00002F006FA1E21012001F0DCF9012002F000
:1005D000FFF91E21002001F047FA012002F0F8F98E
:1005E0001E21002001F000FA012002F0F1F9641C44
:1005F000052CA8DB1421002001F092F9012002F063
:10060000E7F91421002001F0BDF9012002F0E0F922
:1006100010BD00BFFEE7000010B500240DE0074844
:10062000006840B1601CC4B21E2002F0D1F9642CF5
:1006300003DB012010BD0020FCE7F0E700012142B0
:10064000002004E00021034A1154411CC8B20A28CA
:10065000F8DB70479C03002010B5402002F072F9CF
:100660004FF480410A4800F05DF9C02001F0B2FE6D
:10067000002404E0002001F0ADFE601CC4B2102C88
:10068000F8DB4FF48041024800F04EF910BD000045
:10069000000C014010B5002414E01E21012001F0DF
:1006A000A3F91E21002001F0DFF9322002F090F9B9
:1006B0001E21002001F098F91E21012001F0D4F93B
:1006C000601CC4B2052CE8DB10BD704710B50120DA
:1006D00000F006F8FFF7A0FF08B101F0E5FB10BD40
:1006E00001490860704700001404014010B500245F
:1006F0001E21002001F0B8F9012002F069F91E2145
:10070000002001F071F9012002F062F914210120AA
:1007100001F038F9012002F05BF91421012001F009
:10072000FFF8012002F054F91E21012001F05CF9CC
:10073000012002F04DF91E21012001F095F900BFC2
:1007400054E01E21012001F04FF9012002F040F990
:100750001E21012001F088F9012002F039F91E2143
:10076000002001F0DDF8012002F032F91E21002006
:1007700001F008F9012002F02BF91E21002001F000
:1007800073F9012002F024F91E21002001F02CF958
:10079000012002F01DF91E21002001F065F9012061
:1007A00002F016F91E21002001F01EF9012002F0CE
:1007B0000FF91E21012001F0E5F8012002F008F9EF
:1007C0001E21012001F0ACF8012002F001F91E21E8
:1007D000012001F009F9012002F0FAF81E210120A0
:1007E00001F042F9012002F0F3F8641C052CA8DBAB
:1007F0001421002001F0C6F8012002F0E9F81421CC
:10080000002001F08DF8012002F0E2F810BD2DE982
:10081000F041024600250026002000230024002786
:1008200091F803C00CF00F0591F803C00CF0100C08
:10083000BCF1000F03D091F802C04CEA050591F815
:1008400000C0BCF1000F31D0146800202BE04FF045
:10085000010C0CFA00F3B1F800C00CEA03069E424A
:1008600020D183004FF00F0C0CFA03F7BC4305FABC
:1008700003FC4CEA040491F803C0BCF1280F06D134
:100880004FF0010C0CFA00FCC2F814C00AE091F819
:1008900003C0BCF1480F05D14FF0010C0CFA00FC6D
:1008A000C2F810C0401C0828D1D31460B1F800C0B1
:1008B000BCF1FF0F34DD546800202EE000F1080C7D
:1008C0004FF0010808FA0CF3B1F800C00CEA030677
:1008D0009E4221D183004FF00F0C0CFA03F7BC436A
:1008E00005FA03FC4CEA040491F803C0BCF1280F9C
:1008F00005D100F1080C08FA0CF8C2F8148091F840
:1009000003C0BCF1480F07D100F1080C4FF00108FB
:1009100008FA0CF8C2F81080401C0828CED35460A6
:10092000BDE8F081416170470161704700BFFEE79B
:1009300010B50121022002F0D7F84FF4FA7002F04E
:1009400047F800240FE00021042002F0CDF86420D5
:1009500002F03EF80121042002F0C6F8642002F003
:1009600037F8601CC4B20A2CEDDB0021022002F033
:10097000BBF810BD10B501F0ABFA01F0FBFF4FF46E
:10098000A06000F067F84FF4E13002F0A1F94FF4F5
:10099000E13002F04BF98C200C49087082200C49A0
:1009A000087096200B49087082200B49087041F6A8
:1009B0001F41312001F0F0FA01F082F801F03CFA19
:1009C00001F06AFD00F050F810BD00001F0000208B
:1009D00020000020210000202200002000BFFEE7B0
:1009E0007047000070B5002100230F22C47804B3C3
:1009F000154C246804F4E064C4F5E064210AC1F1F4
:100A00000403CA40447804FA03F184781440214373
:100A100009010E4C0678A155047804F01F05012445
:100A2000AC4005786D11AD0005F1E025C5F8004139
:100A300009E0047804F01F050124AC40044D067859
:100A4000761145F8264070BD0CED00E000E400E0B2
:100A500080E100E002490143024A11607047000052
:100A60000000FA050CED00E010B500F013F800F0FE
:100A700015FC00F03DFC00F05DFC00F0E5FB00F033
:100A8000B7FB00F0F1FC00F095FC00F0BBFC00F0BF
:100A900002F810BD7047704706480078012808D159
:100AA00005480078FF2804D203480078401C02491A
:100AB000087070477A0000206D00002010B50024F7
:100AC0001A480078012830D1FFF77CFB044618480B
:100AD000007820B116480078401E15490870144867
:100AE0000078F8B913480078E0B900F01FFD12480B
:100AF0001249097850F82100114908600F48007820
:100B00001049097888420DD00D480068806B401C60
:100B10000B49096888630C480068401C0A49086052
:100B2000FFF76FFB2046FFF751FB10BD7A00002056
:100B30006D0000206E000020C4080020700000201E
:100B4000880000206F0000205400002010B5002411
:100B50000B480078012811D1FFF734FB04460948FF
:100B6000007840B908480078FF2804D20648007889
:100B7000401C054908702046FFF728FB10BD000007
:100B80007A0000206D0000206E00002010B50024C7
:100B900013480078012821D1FFF714FB04461148BF
:100BA0000078C0B10F480078401E0E490870084612
:100BB000007860B90C48007828B92046FFF706FB9A
:100BC00000F07AFC0AE02046FFF700FB06E0204632
:100BD000FFF7FCFA02E02046FFF7F8FA10BD00002C
:100BE0007A0000206E0000206D00002010B50B4838
:100BF000007890B900F09AFC09480078094908701B
:100C000009480749097850F8210008490860084652
:100C1000006807490860FFF7DCFA10BD7A00002081
:100C2000700000206F000020C40800208800002011
:100C300080000020704700002DE9FE4F06460F4659
:100C400090461C464FF00009FFF7BCFA81461F484A
:100C5000007828B14846FFF7B9FA3C20BDE8FE8F7E
:100C60001B4850F8240060BB0120194941F82400BA
:100C70004846FFF7ABFA002342463946304600F0BB
:100C80005FF98246002000900190034602465146DB
:100C90000290204600F060FC054635B90D4800780A
:100CA00001280CD100F008FC09E0FFF78BFA81461F
:100CB0000020074941F824004846FFF787FA2846F4
:100CC000CCE74846FFF782FA2820C7E76D000020EE
:100CD000C40800207A0000202DE9F04F85B081463D
:100CE0008A4693461C46DDE90F78129D002003904A
:100CF000FFF768FA03902348007830B10398FFF7B4
:100D000065FA3C2005B0BDE8F08F1F4850F824007C
:100D100088BB01201C4941F824000398FFF756FACC
:100D20002A464146384600F027FD2B465A46514692
:100D3000484600F005F904901198CDE9008002952D
:100D40003A4620460E9B049900F006FC064636B94A
:100D50000E48007801280CD100F0AEFB09E0FFF747
:100D600031FA03900020084941F824000398FFF766
:100D70002DFA3046C6E7FFE70398FFF727FA282049
:100D8000C0E700006D000020C40800207A000020A9
:100D9000704770472DE9F04106460F4614464FF064
:100DA00000081548007818B112202070BDE8F081C5
:100DB000FFF708FA8046FF2E03D11048006890F82C
:100DC00032600F4850F826502DB94046FFF7FEF923
:100DD00043202070EAE7012D05D14046FFF7F6F9E0
:100DE00043202070E2E7EF644046FFF7EFF9002070
:100DF000207000BFDAE700006D00002080000020B6
:100E0000C408002070B505460026FFF7DBF906464A
:100E1000234850F8254024B93046FFF7D7F946203B
:100E200070BD012C04D13046FFF7D0F94320F7E71D
:100E300094F8300000F0080060B314F8300F00F0B0
:100E4000F700207014F83009F8B9E06AC8B93434F2
:100E5000A07814490978084312490870207812498B
:100E6000085C6178084314F834190F4A505430462E
:100E7000FFF7ACF90D480078012809D100F01CFB00
:100E800006E03046FFF7A2F902E03046FFF79EF990
:100E90000020C5E73046FFF799F94420C0E700007D
:100EA000C408002071000020720000207A00002099
:100EB000704700002DE9F04707460D464FF0000A45
:100EC000002028606860FFF77DF98246FF2F03D17C
:100ED0001948006890F83270184850F827402CB92B
:100EE0005046FFF773F94320BDE8F087012C04D189
:100EF0005046FFF76BF94320F6E7207C00F0010035
:100F000020B95046FFF762F94520EDE70026D4F8F6
:100F10000C90D4F808805046FFF758F900E0761C92
:100F200058F8041B0029FAD0B0002860A9EB06008D
:100F3000800068600020D7E780000020C4080020FF
:100F400070B5044610464FF080750560051F2846B1
:100F50002C606FF00106051F28462E604FF01236F8
:100F6000051F28462E604FF00336051F28462E60C9
:100F70004FF00236051F28462E607610051F2846C2
:100F80002E60051F284629604FF01136051F2846A0
:100F90002E604FF01036051F28462E604FF00936A0
:100FA000051F28462E604FF00836051F28462E6084
:100FB0004FF00736051F28462E604FF00636051FF6
:100FC00028462E604FF00536051F28462E604FF04C
:100FD0000436051F28462E6070BD00002DE9F04143
:100FE00005464FF00008FFF7EDF88046FF2D05D1CC
:100FF0002048006890F83250012608E01D4800683B
:1010000090F83200A84201D1012600E000261A48DB
:1010100050F825402CB94046FFF7D8F84820BDE8E5
:10102000F081012C04D14046FFF7D0F84320F6E7C9
:1010300094F834701148C05D94F8351088430F4916
:10104000C8550846C05D30B994F836100C48007891
:1010500088430B49087094F8300040F0080084F889
:1010600030004046FFF7B2F8012E01D100F024FA1B
:101070000020D4E780000020C40800207200002077
:10108000710000207047000070B505460026174823
:10109000007800B170BD1648007800B1FAE71DB3C2
:1010A000FFF790F806461348006890F8344012485D
:1010B000005D1049096891F8351088430E490855BC
:1010C0000846005D40B90B48006890F836100B48A0
:1010D000007888430949087006480068C5623046B0
:1010E000FFF774F800F0E8F900BFD3E76D000020C7
:1010F0006E0000208000002072000020710000209F
:1011000070B5002600F072F8FFF75CF8064631482B
:101110000068401C2F4908603046FFF757F82E48FA
:101120000078012853D12D48007820B1012804D03F
:10113000022809D103E001250BE0002509E0012583
:1011400001202649087004E0012500202349087089
:1011500000BF00BF05B970BD2148046833E0FFF748
:1011600031F80646E06A50B3E06A401EE062E06A89
:1011700028BB94F8300000F0370040B114F8300F6D
:1011800000F0C800207001206070303C02E00020B8
:1011900084F8310094F8300000F0080078B9343455
:1011A000A0781049097808430E49087020780E4944
:1011B000085C6178084314F834190B4A5054646988
:1011C0003046FFF703F894F832003F28C7D100BF3C
:1011D000C1E70000980000207A0000209000002065
:1011E0008C00002071000020720000207047000079
:1011F0002DE9F0415021114800F02CF900250DE0B7
:10120000681C86B20D4800EB051400EB06170020A1
:10121000207067600AA0E060681C85B2042DEFD3DF
:10122000064800EB051400202070606004A0E06018
:10123000024804490860BDE8F08100007404002001
:101240003F0000005C00002070B5C821114800F08C
:1012500001F900230FE0581C85B203EB83000D4910
:1012600001EB800405EB850001EB80060020207077
:101270006660581C83B2092BEDD303EB830005494C
:1012800001EB80040020207060600846024908607D
:1012900070BD0000AC0300205800002000200A4967
:1012A00008600A4908700A4908700A4908700A4922
:1012B00008700A4908600A4908600A4908600A4932
:1012C00008600A4908707047980000206D000020EF
:1012D0006E0000207B0000207A00002054000020D7
:1012E0007C00002068000020640000206C000020CA
:1012F00000210A4A1170002004E00021084A11541C
:10130000411CC8B20828F8D30021064A1170064AC9
:101310001170064A1160064A116070477100002082
:10132000720000206F000020700000208800002064
:101330008000002070B54FF47C71194800F08AF8E5
:101340004FF48071174800F085F8002413E0601C0A
:10135000C5B2C4EBC40000EB4000114901EB8003AF
:10136000C5EBC50000EB400001EB80065E610EA0FE
:10137000D864601CC4B20B2CE9D3C4EBC40000EBEE
:101380004000074901EB80030020586106A0D864A3
:1013900000200649086002480549086070BD000049
:1013A000C4090020C40800203F0000008C00002079
:1013B0008400002000B587B00320002180220A4B62
:1013C000CDE90132CDE903104FF6FF703F23074A04
:1013D00000900748FFF780FC06AA06A13F20FFF710
:1013E000D9FC07B000BD0000C4060020C0080020E2
:1013F0008D16000875432F4F532D49492049646CC1
:101400006500000000B587B00320002180220A4B50
:10141000CDE90132CDE903104FF6FE703E23074AB5
:1014200000900748FFF758FC06AA06A13E20FFF7E8
:10143000B1FC07B000BD0000C4040020C0060020BD
:10144000B516000875432F4F532D49492053746139
:101450007400000004E0002200F8012B4A1E91B243
:101460000029F8D1704700002DE9F041782110489B
:10147000FFF7F0FF00240DE0601C86B204EB44008F
:101480000B4901EBC00506EB460001EBC0072F60DE
:10149000601C84B2042CEFD304EB4400044901EB3C
:1014A000C00500202860084602490860BDE8F081B8
:1014B000B40D00209400002010B50024FEF782FE39
:1014C000044613480078F8B912480078E0B900F0F3
:1014D0002DF811481149097850F821001049086089
:1014E0000E4800780F49097888420DD00C480068F2
:1014F000806B401C0A49096888630B480068401CDF
:1015000009490860FEF776FE2046FEF75FFE10BD33
:101510006D0000206E000020C40800207000002034
:10152000880000206F000020540000200649074A70
:101530001278885C0649095C034A515C01EBC001E2
:10154000044A117070470000702D000871000020DF
:1015500072000020700000202DE9F84F05460F466C
:1015600090469946DDE90AAB00200090FEF72AFE7E
:1015700000903F480468002C74D0183454F8040CD0
:101580003B4908600098FEF721FE44F8187CA576D8
:10159000002020766076606144F814BC44F80CACFE
:1015A00044F8108C0C9824F8080C24F8069C0020B1
:1015B000E077E810207705F00700E076217F012032
:1015C0008840A077E17E012088406077002060603D
:1015D000E060A0602062A0626062E062206325A0FB
:1015E0006063183C002606E0002104F1500040F83A
:1015F0002610701CC6B2002EF6D02046FFF71AFB4C
:101600002046FFF7C5FBFEF7DDFD00901A4840F8C5
:1016100025401A48006860610020A06117480068F2
:1016200010B1164800688461144804603434A0780E
:101630001349097808431249087020781149085C59
:101640006178084314F834190E4A50540E48007853
:10165000401C0D4908700098FEF7B8FD0020BDE859
:10166000F88FFFE70098FEF7B1FD4220F7E7000092
:10167000840000203F000000C40800208C000020EF
:1016800071000020720000207B000020002400BFB9
:1016900000BFFEF797FD044605480068401C04495A
:1016A00008602046FEF792FDFFF773FBF1E70000AC
:1016B0007C000020002400BF02E02820FFF7E4FCAB
:1016C000194800780028F8D0184800686421B0FB59
:1016D000F1F0164908600846006828B9002014494E
:1016E0000870FF20FFF77AFC00BFFEF76BFD044691
:1016F000104800681049086000200E490860204624
:10170000FEF764FD0C48006808490968B0FBF1F079
:10171000C0F1640006490870FFF7CAFB00F00EF83C
:101720001420FFF7B1FCE0E76C000020640000200B
:10173000600000207C000020680000207CB50025AF
:1017400014E069462846FFF7B5FB064666B9094826
:1017500050F8254044B1012C06D0D4E9020100EB39
:10176000810060640198A064681CC5B23F2DE8D96F
:101770007CBD0000C408002002F0010343B102F068
:1017800002032BB102E0491E002308C00029FAD150
:10179000704700000A48006840F0040008490860EB
:1017A0000846006840F0020008600648006840F003
:1017B00004000449086000BF00BF30BF704700004C
:1017C0000070004010ED00E0014908607047000023
:1017D000A0000E4229B1064AD2690243044BDA61E5
:1017E00004E0034AD2698243014BDA61704700008A
:1017F0000010024029B1064A92690243044B9A61E3
:1018000004E0034A92698243014B9A6170470000E9
:101810000010024029B1064AD2680243044BDA6044
:1018200004E0034AD2688243014BDA60704700004B
:101830000010024030B500210022002400232D4D6D
:101840006D6805F00C0121B1042905D0082923D1C8
:1018500005E0294D056022E0274D05601FE0254D7C
:101860006D6805F47012234D6D6805F4803402250F
:1018700005EB92421CB9214D554305600BE01D4D0F
:101880006D6805F400351DB11C4D5543056002E03F
:10189000194D5543056002E0174D056000BF00BFBC
:1018A000144D6D6805F0F0010909154D6B5C056874
:1018B000DD4045600F4D6D6805F4E061090A104D8B
:1018C0006B5C4568DD4085600A4D6D6805F46051CC
:1018D000C90A0B4D6B5C4568DD40C560054D6D6800
:1018E00005F44041890B074D6B5CC568B5FBF3F50A
:1018F000056130BD0010024000127A0000093D0071
:101900003E0000204E0000207047000010B5044645
:10191000A1B2024800F003FD10BD00000004004029
:1019200070B504460D4600200F49087017E02CB929
:101930000E480078401C0D49087004E00B48007800
:10194000401E0A49087009480078FFF7DFFF0720AA
:1019500001F03EF804480078401C03490870024832
:101960000078A842E3DB70BD1C0000201F000020AF
:1019700010B50446A1B2024800F0D3FC10BD00002F
:101980000004004070B504460D4600200F49087061
:1019900017E02CB90E480078401C0D49087004E08F
:1019A0000B480078401E0A49087009480078FFF784
:1019B000DFFF072001F00CF804480078401C0349C1
:1019C000087002480078A842E3DB70BD1C000020CC
:1019D0002000002010B50446A1B2024800F0A3FC8C
:1019E00010BD00000004004070B504460D46002004
:1019F0001249087018E02CB911480078401E1049AF
:101A0000087004E00E480078401C0D4908700C482E
:101A10000078FFF7DFFF0B48007800F0D9FF074898
:101A20000078401C0549087004480078A842E2DBB1
:101A30000348017804A0FEF721FC70BD1C000020C3
:101A4000210000201E0000206265617574793A252E
:101A50006400000010B50446A1B2024800F065FC25
:101A600010BD00000004004070B504460D46002083
:101A70001049087018E02CB90F480078401E0E4934
:101A8000087004E00C480078401C0B4908700A48B4
:101A90000078FFF7DFFF0948007800F099FF05485C
:101AA0000078401C0349087002480078A842E2DB35
:101AB00070BD00001C000020220000201E0000203D
:101AC00000B589B001210220FFF784FE01210C201E
:101AD000FFF790FEC020ADF820001C208DF82300F9
:101AE00003208DF8220008A93648FEF790FE032057
:101AF000ADF820001C208DF8230003208DF8220073
:101B000008A93148FEF783FE40F2CF70ADF8180007
:101B100040F2CF20ADF814000020ADF81A00ADF867
:101B2000160005A9294800F003FC6020ADF8040068
:101B30000120ADF8060026480078ADF80A00002024
:101B4000ADF80C0001A9214800F098FA0120ADF889
:101B5000060020480078ADF80A0001A91B4800F0F3
:101B6000D9FA0821194800F027FB0120ADF806003A
:101B700019480078ADF80A0001A9144800F02AFBC2
:101B80000821124800F076FB0120ADF8060013484A
:101B90000078ADF80A0001A90C4800F075FB082197
:101BA0000A4800F0AFFB0121084800F03EFA01218D
:101BB000064800F01FFA0121044800F02AFA09B093
:101BC00000BD000000080140000C0140000400407E
:101BD0001F00002020000020210000202200002003
:101BE00010B5044604F0010020B120211748FEF78B
:101BF0009BFE03E020211548FEF794FE04F002004E
:101C000020B140211148FEF78FFE03E040210F482C
:101C1000FEF788FE04F0040020B180210B48FEF797
:101C200083FE03E080210948FEF77CFE04F00800F3
:101C300028B14FF480710548FEF776FE04E04FF4BA
:101C400080710248FEF76EFE10BD0000000C0140DE
:101C500010B500F001F810BD0CB500200190009007
:101C60003348006840F480303149086000BF304894
:101C7000006800F4003000900198401C019000982A
:101C800018B90198B0F5A06FF1D12948006800F4A7
:101C9000003010B10120009001E000200090009879
:101CA000012843D12348006840F010002149086012
:101CB0000846006820F0030008600846006840F00D
:101CC000020008601A4840681949486008464068A0
:101CD00048600846406840F48060486008464068B4
:101CE00020F47C1048600846406840F4E8104860E2
:101CF0000846006840F08070086000BF0C4800682B
:101D000000F000700028F9D00948406820F0030076
:101D1000074948600846406840F00200486000BF3C
:101D20000348406800F00C000828F9D10CBD000001
:101D3000001002400020024010B5002414210020B1
:101D4000FFF792FE012000F043FE14210020FFF770
:101D50004BFE012000F03CFE14210020FFF7E0FDC7
:101D6000012000F035FE00BF0FE028210120FFF721
:101D7000D7FD012000F02CFE28210020FFF7D0FD28
:101D8000012000F025FE601CC4B20A2CEDDB1421FA
:101D90000120FFF7C5FD012000F01AFE14210120EB
:101DA000FFF762FE012000F013FE14210120FFF76F
:101DB0001BFE4FF4FA6000F00BFE14210120FFF728
:101DC00013FE012000F004FE14210120FFF74CFE59
:101DD000012000F0FDFD14210020FFF7D3FD0120BC
:101DE00000F0F6FD00240FE028210120FFF7CAFDD6
:101DF000012000F0EDFD28210020FFF7C3FD0120A8
:101E000000F0E6FD601CC4B20A2CEDDB14210120B9
:101E1000FFF7B8FD012000F0DBFD14210020FFF7E3
:101E200023FE012000F0D4FD14210020FFF7DCFD8B
:101E3000012000F0CDFD10BD08B501210820FFF7FD
:101E4000D9FC10208DF8030003208DF8020047F222
:101E5000E010ADF8000069460148FEF7D8FC08BD67
:101E6000000C0140042808D14FF0E021096941F03D
:101E700004014FF0E022116107E04FF0E021096911
:101E800021F004014FF0E0221161704710B50548C0
:101E90000078012805D1FEF7FFFDFFF731F9FEF7C5
:101EA0000DFE10BD7A00002010B500214FF4FE7029
:101EB000FFF7B0FC00F001F810BD10B501210807D4
:101EC000FFF788FC0120FFF77FFCFFF763FC10BDE4
:101ED00010B51348006840F0010011490860084639
:101EE0004068104908400E494860084600680E499D
:101EF00008400B4908600846006820F4802008600C
:101F00000846406820F4FE0048604FF41F008860D7
:101F1000FFF79EFE4FF000600449086010BD00000E
:101F2000001002400000FFF8FFFFF6FE08ED00E0A1
:101F300010B50121880700F087F801281FD1124849
:101F40000078E0B1104800781049097888420FD134
:101F50000F480078401C0E49087008460078042895
:101F60000DDB01200B49087000200949087006E0CC
:101F700000200749087004480078044908700121CE
:101F8000880700F043F810BD3D000020020000204B
:101F900003000020000000207FB505460C4601210B
:101FA0000846FFF717FCADF80850ADF804400020D4
:101FB000ADF80600ADF80A0001A94FF0804000F02E
:101FC000B7F901221146900700F04FF80121880768
:101FD00000F01FF81C208DF8000001208DF8010092
:101FE00003208DF8020001208DF803006846FEF7FB
:101FF000F9FC7FBD21B1028842F08002028004E03A
:1020000002884FF67F731A4002807047CA430282EB
:10201000704721B1028842F00102028004E0028888
:102020004FF6FE731A400280704731B1B0F8442079
:1020300042F40042A0F8442005E0B0F84420C2F386
:102040000E02A0F84420704730B50246002000235D
:102050000024158A05EA0103958905EA010413B1F4
:102060000CB1012000E0002030BD1AB183890B4380
:10207000838102E083898B438381704770B500249C
:1020800000220023058C4FF6FE7635400584028C35
:102090008388048B4FF68F752C40B51E2C400D881D
:1020A0002C43751E2A400D892A434D882A43144D1E
:1020B000A8420BD0134DA84208D0134DA84205D01A
:1020C000124DA84202D0124DA84213D14FF6F77517
:1020D0002A404D892A434FF6FB752A408D882A43B2
:1020E0004FF6FF652B404FF6FF552B408D892B4354
:1020F000CD892B4383800483CD888586028470BD7F
:10210000002C0140003401400040014000440140E7
:102110000048014070B5002400220023058C4FF6D2
:10212000EF7635400584028C8388048B48F6FF7572
:102130002C404FF6FF452C400D884FF6FF7606EAFF
:1021400005252C434FF6DF752A400D8906EA051553
:102150002A434D8806EA05152A43154DA84202D0A8
:10216000144DA8421DD14FF67F752A404D894FF678
:10217000FF7606EA05152A434FF6BF752A408D887B
:1021800006EA05152A434FF6FF352B404FF2FF753F
:102190002B408D8906EA85052B43CD8906EA850506
:1021A0002B4383800483CD880587028470BD0000A3
:1021B000002C0140003401400A460021018B4FF2FF
:1021C000FF7319404FF6FF7303EA0223194301839B
:1021D0007047000070B5002400220023058C4FF6E4
:1021E000FF6635400584028C8388848B4FF68F759B
:1021F0002C404FF6FC752C400D882C434FF6FF55B4
:102200002A400D894FF6FF7606EA05252A434D88B8
:1022100006EA05252A43154DA84202D0144DA842CE
:102220001DD14FF2FF752A404D894FF6FF7606EA21
:1022300005252A434FF6FF352A408D8806EA0525F5
:102240002A434EF6FF752B404DF6FF752B408D89C6
:1022500006EA05152B43CD8906EA05152B43838035
:102260008483CD888587028470BD0000002C0140E6
:10227000003401400A460021818B4FF6F773194064
:10228000114381837047000070B5002200230024B1
:10229000058C4EF6FF7635400584038C8488828B4E
:1022A00048F6FF752A404FF6FF452A400D884FF645
:1022B000FF7606EA05252A434DF6FF752B400D896A
:1022C00006EA05352B434D8806EA05352B430B4DB1
:1022D000A84202D00A4DA84208D14BF6FF752C4007
:1022E0008D894FF6FF7606EA85152C43848082831C
:1022F000CD88A0F84050038470BD0000002C014040
:10230000003401400A460021818B4FF2FF731940CF
:102310004FF6FF7303EA02231943818370478186D6
:1023200070470187704781877047A0F84010704759
:10233000002202881D4B98420ED01D4B98420BD0B4
:10234000B0F1804F08D01B4B984205D01A4B9842F1
:1023500002D01A4B984204D14FF68F731A404B8823
:102360001A43174B984207D0164B984204D04FF6A9
:10237000FF431A40CB881A4302808B8883850B88E1
:1023800003850A4B98420BD0094B984208D00E4B5C
:10239000984205D00D4B984202D00D4B984201D186
:1023A0000B7A03860123838270470000002C0140D2
:1023B000003401400004004000080040000C0040D0
:1023C0000010004000140040004001400044014063
:1023D0000048014070B504464FF480411648FEF7AE
:1023E000A1FA00251AE04FF400511348FEF79AFABB
:1023F00004F0010028B14FF480510F48FEF794FA21
:1024000004E04FF480510C48FEF78CFA4FF4005171
:102410000948FEF789FA6410681CC5B2082DE2DB92
:102420004FF400510448FEF77DFA4FF48051024802
:10243000FEF778FA70BD0000000C014070B5C826A8
:10244000442000F07FFA002521E04FF4804111483C
:10245000FEF768FA6900C031C8B2FFF7BBFF00247D
:1024600009E00121A140C8B2FFF7B4FF304600F0F7
:10247000AFFA601CC4B2092CF3DB4FF4804105486D
:10248000FEF752FA142000F0A3FA681CC5B2082D1A
:10249000DBDB70BD000C014010B54FF400510B4860
:1024A000FEF742FA4FF480410848FEF73DFA4FF438
:1024B00080510648FEF738FA892000F043FAFEF70B
:1024C000CBF8642000F084FA10BD0000000C01403D
:1024D00010B5002400BF44E01E210020FFF7C4FA1D
:1024E000012000F075FA1E210020FFF77DFA01207F
:1024F00000F06EFA14210020FFF712FA012000F01C
:1025000067FA1E210120FFF76FFA012000F060FA40
:102510001E210120FFF7A8FA1E210120FFF764FA0F
:10252000012000F055FA1E210120FFF79DFA01203D
:1025300000F04EFA14210120FFF7F2F9012000F01B
:1025400047FA1E210020FFF78FFA012000F040FA21
:102550001E210020FFF748FA012000F039FA601C24
:10256000C4B2032CB8DB10BD10B5002400BF44E09A
:102570001E210120FFF738FA012000F029FA1E2160
:102580000120FFF771FA012000F022FA1421012046
:10259000FFF7F8F9012000F01BFA1E210020FFF7D9
:1025A00063FA012000F014FA1E210020FFF71CFA44
:1025B0001E210020FFF758FA012000F009FA1E2121
:1025C0000020FFF711FA012000F002FA1421002088
:1025D000FFF7D8F9012000F0FBF91E210120FFF7D9
:1025E00003FA012000F0F4F91E210120FFF73CFA64
:1025F000012000F0EDF9601CC4B2032CB8DB10BD63
:1026000010B540F22551084800F032F850B10648A4
:1026100000F0EAF8C4B2204600F080F92021024818
:1026200000F004F810BD00000044004001F4007206
:10263000B2F5007F00D100BFCA430280704721B1CC
:10264000828942F40052828104E082894DF6FF7350
:102650001A408281704702460020B1F5007F00D108
:1026600000BF13880B400BB1012000E00020704731
:1026700070B50246002400230025002040F66A16AB
:10268000B14200D100BFC1F3421501F01F03012682
:1026900006FA03F3012D02D19689334006E0022D9C
:1026A00002D1168A334001E0968A33400C1201268B
:1026B00006FA04F41688344013B10CB1012000E08E
:1026C000002070BDF0B50346002400260025002040
:1026D00040F66A17B94200D100BF1846C1F3421450
:1026E00001F01F06012707FA06F5012C01D10C3075
:1026F00004E0022C01D1103000E014301AB1076858
:102700002F43076002E00768AF430760F0BD000099
:102710002DE9F04786B005460E460024A24600BFCC
:10272000A1460027B08900B100BF2F462C8A4CF685
:10273000FF700440F08804432C82AC894EF6F310FD
:102740000440B08831890843718908430443AC814F
:10275000AC8A4FF6FF400440B0890443AC8201A824
:10276000FFF768F81F48874202D1DDF810A001E0AA
:10277000DDF80CA0A88900F4004040B10AEBCA00C3
:1027800000EB0A1031684900B0FBF1F807E00AEBF2
:10279000CA0000EB0A1031688900B0FBF1F8642030
:1027A000B8FBF0F004012009642101FB1089A8891D
:1027B00000F4004040B1322000EBC900B0FBF1F062
:1027C00000F00700044308E0322000EB0910642108
:1027D000B0FBF1F000F00F0004432C8106B0BDE81F
:1027E000F08700000038014001468888C0F30800E7
:1027F0007047C1F308028280704700BFFEE7000007
:1028000000B506222EA1304800F0FEF918B90120CB
:102810002E49087052E008222DA12B4800F0F4F94F
:1028200018B902202949087048E005222BA1264842
:1028300000F0EAF918B90320244908703EE00822A4
:1028400029A1214800F0E0F918B904201F490870B7
:1028500034E0052227A11C4800F0D6F918B905205C
:102860001A4908702AE0052224A1174800F0CCF983
:1028700018B906201549087020E0042221A1124849
:1028800000F0C2F918B907201049087016E00522B7
:102890001EA10D4800F0B8F918B908200B490870BE
:1028A0000CE005221BA1084800F0AEF918B9092078
:1028B0000649087002E000200449087000BD0000CD
:1028C000466F7277617264009C0300200400002050
:1028D0004261636B77617264000000005475726E30
:1028E00052696768740000005475726E4C656674B6
:1028F0000000000044616E63650000005368616B76
:102900006500000048656164000000004C65644F8C
:102910006E0000004C65644F666600000749084A77
:102920001278885406490978491C054A11701146E5
:1029300009780F2901DB0021117070479C030020EA
:102940003D00002010B504464FF480410748FDF7D4
:10295000E9FF2046FFF73EFD4FF480410348FDF7B5
:10296000E3FF022000F034F810BD0000000C01402D
:1029700000BF704710B56FF00400FFF773FA1048FE
:1029800000681049B0FBF1F00F4908700C4800686E
:102990000C49B0FBF1F441F28830444305200B4967
:1029A00008804FF0E020006940F002004FF0E02185
:1029B000086108464461006940F00100086110BDEB
:1029C0000800002000127A003400002036000020A9
:1029D00070B504460F480078A0B10F48007888B958
:1029E0000E480088844206DB0C48008894FBF0F512
:1029F000284600F01DF80948008894FBF0F100FB20
:102A0000114084B24FF47A7104FB01F000F016F823
:102A100070BD00007A0000206D000020360000200C
:102A200010B5FEF793F810BD10B5FEF7AFF810BD66
:102A300010B504462046FEF727FB10BD2DE9F047F0
:102A4000074600264FF0E020D0F814901148007897
:102A500007FB00F800BFFFF7E3FF4FF0E0208569B8
:102A600011E04FF0E0208469AC420CD0AC4202D2BD
:102A7000281B064403E0A9EB04002844064425462D
:102A8000464500D300E0ECE700BFFFF7CDFFBDE80F
:102A9000F08700003400002070B504460D46E1B216
:102AA0000548FFF7A6FE00BF40210348FFF7D3FD0E
:102AB0000128F9D1204670BD0038014001E0FFF740
:102AC000BDFCFCE710B5FDF755FF0A23044A0021C1
:102AD0000448FEF7B1F8FEF789F8002010BD0000A9
:102AE00098010020C52B00082DE9F04105460E464F
:102AF0000024A04619E0002713E000240EE0012E78
:102B000004D10C49085DFFF76BF803E00A49085D42
:102B1000FFF766F80220FFF75BFF641C082CEEDB72
:102B20007F1C082FE9DB08F10108A845E3DBBDE8BD
:102B3000F0810000230000202B00002010B5124877
:102B4000007808281AD2DFE800F01904070A0D10EF
:102B50001316FDF7CBFD15E0FDF7CAFC12E0FFF7F9
:102B600003FD0FE0FFF7B4FC0CE0FDF793FD09E077
:102B7000FFF7E2F806E0FDF7DBFE03E00020024984
:102B8000087000BF00BF10BD0400002014E00B4817
:102B9000007801280DD10020084908700849087004
:102BA000FFF72EFE0620FEF72DF9FFF7C7FFFDF712
:102BB00047FD0620FEF712FAE9E7000000000020BA
:102BC0003D00002070B50446002500BFFDF7FAFA6D
:102BD00005460723084A00210848FEF72DF806237A
:102BE000074A00210748FEF727F80A20FEF7F6F902
:102BF0002846FDF7EBFA70BD980200208D2B0008E7
:102C000098030020BD2A000830B50346002406E0E2
:102C1000641C944201D1002030BD5B1C491C187813
:102C20000D78A842F4D04FF0FF30F5E710B586B02C
:102C3000044601210420FEF7DDFD01214804FEF7D2
:102C4000C9FD0420ADF8140003208DF816001820EB
:102C50008DF8170005A91C48FDF7D9FD0820ADF82F
:102C6000140004208DF8170005A91748FDF7CFFDC3
:102C700026208DF8000003208DF8010002208DF839
:102C8000020001208DF803006846FDF7ABFE0194B9
:102C90000020ADF80800ADF80A00ADF80C00ADF862
:102CA00010000C20ADF80E0001A90848FFF730FD18
:102CB000012240F225510548FFF704FD0121034898
:102CC000FFF7BDFC06B010BD000801400044004005
:102CD00010B586B00446012144F20400FEF78AFDD7
:102CE0004FF40070ADF8140003208DF81600182082
:102CF0008DF8170005A91C48FDF789FD4FF4806089
:102D0000ADF8140004208DF8170005A91648FDF74A
:102D10007EFD25208DF8000003208DF801008DF840
:102D2000020001208DF803006846FDF75BFE019468
:102D30000020ADF80800ADF80A00ADF80C00ADF8C1
:102D400010000C20ADF80E0001A90848FFF7E0FCC8
:102D5000002240F225510548FFF7B4FC0121034849
:102D6000FFF76DFC06B010BD0008014000380140BF
:102D70000000010002000100030001000200010048
:102D80000400010002000100030001000200010034
:102D90000500010002000100030001000200010023
:102DA0000400010002000100030001000200010014
:102DB0000600010002000100030001000200010002
:102DC00004000100020001000300010002000100F4
:102DD00005000100020001000300010002000100E3
:102DE00004000100020001000300010002000100D4
:102DF00007000100020001000300010002000100C1
:102E000004000100020001000300010002000100B3
:102E100005000100020001000300010002000100A2
:102E20000400010002000100030001000200010093
:102E30000600010002000100030001000200010081
:102E40000400010002000100030001000200010073
:102E50000500010002000100030001000200010062
:102E60000400010002000100030001000200010053
:102E7000902E0008000000209C000000280100089F
:102E80002C2F00089C000020F40F000044010008D3
:102E9000000000000000000000A24A040000000042
:102EA00000000000010203040607080900C80A0028
:102EB000000000080C0406020301090901030206D0
:102EC000040C0800000000000000000000000000EA
:102ED00000000102030401020304060708090204BA
:102EE00006080000000000000000000000000000D4
:102EF00000000000000000000000000000000000D2
:102F000000000000000000000000000000000000C1
:102F100000000000000000000000000000000000B1
:0C2F2000000000000000000000000000A5
:04000005080001915D
:00000001FF
